{
  "contractName": "Nala",
  "abi": [
    {
      "inputs": [
        {
          "internalType": "string",
          "name": "name",
          "type": "string"
        },
        {
          "internalType": "string",
          "name": "symbol",
          "type": "string"
        },
        {
          "internalType": "uint256",
          "name": "_rate",
          "type": "uint256"
        },
        {
          "internalType": "string",
          "name": "_hostURI",
          "type": "string"
        }
      ],
      "stateMutability": "nonpayable",
      "type": "constructor"
    },
    {
      "anonymous": false,
      "inputs": [
        {
          "indexed": true,
          "internalType": "address",
          "name": "owner",
          "type": "address"
        },
        {
          "indexed": true,
          "internalType": "address",
          "name": "approved",
          "type": "address"
        },
        {
          "indexed": true,
          "internalType": "uint256",
          "name": "tokenId",
          "type": "uint256"
        }
      ],
      "name": "Approval",
      "type": "event"
    },
    {
      "anonymous": false,
      "inputs": [
        {
          "indexed": true,
          "internalType": "address",
          "name": "owner",
          "type": "address"
        },
        {
          "indexed": true,
          "internalType": "address",
          "name": "operator",
          "type": "address"
        },
        {
          "indexed": false,
          "internalType": "bool",
          "name": "approved",
          "type": "bool"
        }
      ],
      "name": "ApprovalForAll",
      "type": "event"
    },
    {
      "anonymous": false,
      "inputs": [
        {
          "indexed": true,
          "internalType": "address",
          "name": "from",
          "type": "address"
        },
        {
          "indexed": true,
          "internalType": "address",
          "name": "to",
          "type": "address"
        },
        {
          "indexed": true,
          "internalType": "uint256",
          "name": "tokenId",
          "type": "uint256"
        }
      ],
      "name": "Transfer",
      "type": "event"
    },
    {
      "inputs": [
        {
          "internalType": "address",
          "name": "to",
          "type": "address"
        },
        {
          "internalType": "uint256",
          "name": "tokenId",
          "type": "uint256"
        }
      ],
      "name": "approve",
      "outputs": [],
      "stateMutability": "nonpayable",
      "type": "function"
    },
    {
      "inputs": [
        {
          "internalType": "address",
          "name": "owner",
          "type": "address"
        }
      ],
      "name": "balanceOf",
      "outputs": [
        {
          "internalType": "uint256",
          "name": "",
          "type": "uint256"
        }
      ],
      "stateMutability": "view",
      "type": "function"
    },
    {
      "inputs": [
        {
          "internalType": "uint256",
          "name": "tokenId",
          "type": "uint256"
        }
      ],
      "name": "getApproved",
      "outputs": [
        {
          "internalType": "address",
          "name": "",
          "type": "address"
        }
      ],
      "stateMutability": "view",
      "type": "function"
    },
    {
      "inputs": [],
      "name": "host",
      "outputs": [
        {
          "internalType": "address",
          "name": "",
          "type": "address"
        }
      ],
      "stateMutability": "view",
      "type": "function"
    },
    {
      "inputs": [
        {
          "internalType": "address",
          "name": "owner",
          "type": "address"
        },
        {
          "internalType": "address",
          "name": "operator",
          "type": "address"
        }
      ],
      "name": "isApprovedForAll",
      "outputs": [
        {
          "internalType": "bool",
          "name": "",
          "type": "bool"
        }
      ],
      "stateMutability": "view",
      "type": "function"
    },
    {
      "inputs": [],
      "name": "name",
      "outputs": [
        {
          "internalType": "string",
          "name": "",
          "type": "string"
        }
      ],
      "stateMutability": "view",
      "type": "function"
    },
    {
      "inputs": [
        {
          "internalType": "uint256",
          "name": "tokenId",
          "type": "uint256"
        }
      ],
      "name": "ownerOf",
      "outputs": [
        {
          "internalType": "address",
          "name": "",
          "type": "address"
        }
      ],
      "stateMutability": "view",
      "type": "function"
    },
    {
      "inputs": [],
      "name": "rate",
      "outputs": [
        {
          "internalType": "uint256",
          "name": "",
          "type": "uint256"
        }
      ],
      "stateMutability": "view",
      "type": "function"
    },
    {
      "inputs": [
        {
          "internalType": "address",
          "name": "from",
          "type": "address"
        },
        {
          "internalType": "address",
          "name": "to",
          "type": "address"
        },
        {
          "internalType": "uint256",
          "name": "tokenId",
          "type": "uint256"
        }
      ],
      "name": "safeTransferFrom",
      "outputs": [],
      "stateMutability": "nonpayable",
      "type": "function"
    },
    {
      "inputs": [
        {
          "internalType": "address",
          "name": "from",
          "type": "address"
        },
        {
          "internalType": "address",
          "name": "to",
          "type": "address"
        },
        {
          "internalType": "uint256",
          "name": "tokenId",
          "type": "uint256"
        },
        {
          "internalType": "bytes",
          "name": "_data",
          "type": "bytes"
        }
      ],
      "name": "safeTransferFrom",
      "outputs": [],
      "stateMutability": "nonpayable",
      "type": "function"
    },
    {
      "inputs": [
        {
          "internalType": "address",
          "name": "operator",
          "type": "address"
        },
        {
          "internalType": "bool",
          "name": "approved",
          "type": "bool"
        }
      ],
      "name": "setApprovalForAll",
      "outputs": [],
      "stateMutability": "nonpayable",
      "type": "function"
    },
    {
      "inputs": [
        {
          "internalType": "bytes4",
          "name": "interfaceId",
          "type": "bytes4"
        }
      ],
      "name": "supportsInterface",
      "outputs": [
        {
          "internalType": "bool",
          "name": "",
          "type": "bool"
        }
      ],
      "stateMutability": "view",
      "type": "function"
    },
    {
      "inputs": [],
      "name": "symbol",
      "outputs": [
        {
          "internalType": "string",
          "name": "",
          "type": "string"
        }
      ],
      "stateMutability": "view",
      "type": "function"
    },
    {
      "inputs": [
        {
          "internalType": "uint256",
          "name": "tokenId",
          "type": "uint256"
        }
      ],
      "name": "tokenURI",
      "outputs": [
        {
          "internalType": "string",
          "name": "",
          "type": "string"
        }
      ],
      "stateMutability": "view",
      "type": "function"
    },
    {
      "inputs": [],
      "name": "totalSupply",
      "outputs": [
        {
          "internalType": "uint256",
          "name": "",
          "type": "uint256"
        }
      ],
      "stateMutability": "view",
      "type": "function"
    },
    {
      "inputs": [
        {
          "internalType": "address",
          "name": "from",
          "type": "address"
        },
        {
          "internalType": "address",
          "name": "to",
          "type": "address"
        },
        {
          "internalType": "uint256",
          "name": "tokenId",
          "type": "uint256"
        }
      ],
      "name": "transferFrom",
      "outputs": [],
      "stateMutability": "nonpayable",
      "type": "function"
    },
    {
      "inputs": [
        {
          "components": [
            {
              "internalType": "uint256",
              "name": "year",
              "type": "uint256"
            },
            {
              "internalType": "uint256",
              "name": "month",
              "type": "uint256"
            },
            {
              "internalType": "uint256",
              "name": "day",
              "type": "uint256"
            }
          ],
          "internalType": "struct date",
          "name": "d",
          "type": "tuple"
        },
        {
          "internalType": "uint256",
          "name": "hour",
          "type": "uint256"
        }
      ],
      "name": "scheduledURI",
      "outputs": [
        {
          "internalType": "string",
          "name": "",
          "type": "string"
        }
      ],
      "stateMutability": "view",
      "type": "function"
    },
    {
      "inputs": [
        {
          "components": [
            {
              "internalType": "uint256",
              "name": "year",
              "type": "uint256"
            },
            {
              "internalType": "uint256",
              "name": "month",
              "type": "uint256"
            },
            {
              "internalType": "uint256",
              "name": "day",
              "type": "uint256"
            }
          ],
          "internalType": "struct date",
          "name": "d",
          "type": "tuple"
        },
        {
          "internalType": "uint256",
          "name": "hour",
          "type": "uint256"
        }
      ],
      "name": "checkHourAvailability",
      "outputs": [
        {
          "internalType": "uint256",
          "name": "",
          "type": "uint256"
        }
      ],
      "stateMutability": "view",
      "type": "function"
    },
    {
      "inputs": [
        {
          "internalType": "address",
          "name": "guest",
          "type": "address"
        },
        {
          "components": [
            {
              "internalType": "uint256",
              "name": "year",
              "type": "uint256"
            },
            {
              "internalType": "uint256",
              "name": "month",
              "type": "uint256"
            },
            {
              "internalType": "uint256",
              "name": "day",
              "type": "uint256"
            }
          ],
          "internalType": "struct date",
          "name": "openDate",
          "type": "tuple"
        },
        {
          "internalType": "uint256",
          "name": "openHour",
          "type": "uint256"
        },
        {
          "internalType": "uint256",
          "name": "displayHours",
          "type": "uint256"
        },
        {
          "internalType": "string",
          "name": "_tokenURI",
          "type": "string"
        }
      ],
      "name": "book",
      "outputs": [],
      "stateMutability": "payable",
      "type": "function"
    },
    {
      "inputs": [
        {
          "internalType": "address payable",
          "name": "recepient",
          "type": "address"
        }
      ],
      "name": "withdraw",
      "outputs": [],
      "stateMutability": "nonpayable",
      "type": "function"
    }
  ],
  "bytecode": "0x60806040523480156200001157600080fd5b5060405162004e3138038062004e3183398181016040528101906200003791906200084d565b8383816000908051906020019062000051929190620006d1565b5080600190805190602001906200006a929190620006d1565b50505081600881905550620000846200010460201b60201c565b600760006101000a81548173ffffffffffffffffffffffffffffffffffffffff021916908373ffffffffffffffffffffffffffffffffffffffff160217905550620000fa6000600760009054906101000a900473ffffffffffffffffffffffffffffffffffffffff16836200010c60201b60201c565b5050505062000f08565b600033905090565b600954831462000153576040517f08c379a00000000000000000000000000000000000000000000000000000000081526004016200014a9062000ac2565b60405180910390fd5b6200016582846200019860201b60201c565b620001778382620001be60201b60201c565b6001600960008282546200018c919062000bb4565b92505081905550505050565b620001ba8282604051806020016040528060008152506200023f60201b60201c565b5050565b620001cf82620002ad60201b60201c565b62000211576040517f08c379a0000000000000000000000000000000000000000000000000000000008152600401620002089062000ae4565b60405180910390fd5b806006600084815260200190815260200160002090805190602001906200023a929190620006d1565b505050565b6200025183836200031960201b60201c565b620002666000848484620004ff60201b60201c565b620002a8576040517f08c379a00000000000000000000000000000000000000000000000000000000081526004016200029f9062000a7e565b60405180910390fd5b505050565b60008073ffffffffffffffffffffffffffffffffffffffff166002600084815260200190815260200160002060009054906101000a900473ffffffffffffffffffffffffffffffffffffffff1673ffffffffffffffffffffffffffffffffffffffff1614159050919050565b600073ffffffffffffffffffffffffffffffffffffffff168273ffffffffffffffffffffffffffffffffffffffff1614156200038c576040517f08c379a0000000000000000000000000000000000000000000000000000000008152600401620003839062000b06565b60405180910390fd5b6200039d81620002ad60201b60201c565b15620003e0576040517f08c379a0000000000000000000000000000000000000000000000000000000008152600401620003d79062000aa0565b60405180910390fd5b620003f460008383620006b960201b60201c565b6001600360008473ffffffffffffffffffffffffffffffffffffffff1673ffffffffffffffffffffffffffffffffffffffff168152602001908152602001600020600082825462000446919062000bb4565b92505081905550816002600083815260200190815260200160002060006101000a81548173ffffffffffffffffffffffffffffffffffffffff021916908373ffffffffffffffffffffffffffffffffffffffff160217905550808273ffffffffffffffffffffffffffffffffffffffff16600073ffffffffffffffffffffffffffffffffffffffff167fddf252ad1be2c89b69c2b068fc378daa952ba7f163c4a11628f55a4df523b3ef60405160405180910390a45050565b60006200052d8473ffffffffffffffffffffffffffffffffffffffff16620006be60201b6200144d1760201c565b15620006ac578373ffffffffffffffffffffffffffffffffffffffff1663150b7a026200055f6200010460201b60201c565b8786866040518563ffffffff1660e01b815260040162000583949392919062000a2a565b602060405180830381600087803b1580156200059e57600080fd5b505af1925050508015620005d257506040513d601f19601f82011682018060405250810190620005cf919062000821565b60015b6200065b573d806000811462000605576040519150601f19603f3d011682016040523d82523d6000602084013e6200060a565b606091505b5060008151141562000653576040517f08c379a00000000000000000000000000000000000000000000000000000000081526004016200064a9062000a7e565b60405180910390fd5b805181602001fd5b63150b7a0260e01b7bffffffffffffffffffffffffffffffffffffffffffffffffffffffff1916817bffffffffffffffffffffffffffffffffffffffffffffffffffffffff191614915050620006b1565b600190505b949350505050565b505050565b600080823b905060008111915050919050565b828054620006df9062000cb1565b90600052602060002090601f0160209004810192826200070357600085556200074f565b82601f106200071e57805160ff19168380011785556200074f565b828001600101855582156200074f579182015b828111156200074e57825182559160200191906001019062000731565b5b5090506200075e919062000762565b5090565b5b808211156200077d57600081600090555060010162000763565b5090565b600062000798620007928462000b51565b62000b28565b905082815260208101848484011115620007b157600080fd5b620007be84828562000c7b565b509392505050565b600081519050620007d78162000ed4565b92915050565b600082601f830112620007ef57600080fd5b81516200080184826020860162000781565b91505092915050565b6000815190506200081b8162000eee565b92915050565b6000602082840312156200083457600080fd5b60006200084484828501620007c6565b91505092915050565b600080600080608085870312156200086457600080fd5b600085015167ffffffffffffffff8111156200087f57600080fd5b6200088d87828801620007dd565b945050602085015167ffffffffffffffff811115620008ab57600080fd5b620008b987828801620007dd565b9350506040620008cc878288016200080a565b925050606085015167ffffffffffffffff811115620008ea57600080fd5b620008f887828801620007dd565b91505092959194509250565b6200090f8162000c11565b82525050565b6000620009228262000b87565b6200092e818562000b92565b93506200094081856020860162000c7b565b6200094b8162000daa565b840191505092915050565b60006200096560328362000ba3565b9150620009728262000dbb565b604082019050919050565b60006200098c601c8362000ba3565b9150620009998262000e0a565b602082019050919050565b6000620009b3600f8362000ba3565b9150620009c08262000e33565b602082019050919050565b6000620009da602e8362000ba3565b9150620009e78262000e5c565b604082019050919050565b600062000a0160208362000ba3565b915062000a0e8262000eab565b602082019050919050565b62000a248162000c71565b82525050565b600060808201905062000a41600083018762000904565b62000a50602083018662000904565b62000a5f604083018562000a19565b818103606083015262000a73818462000915565b905095945050505050565b6000602082019050818103600083015262000a998162000956565b9050919050565b6000602082019050818103600083015262000abb816200097d565b9050919050565b6000602082019050818103600083015262000add81620009a4565b9050919050565b6000602082019050818103600083015262000aff81620009cb565b9050919050565b6000602082019050818103600083015262000b2181620009f2565b9050919050565b600062000b3462000b47565b905062000b42828262000ce7565b919050565b6000604051905090565b600067ffffffffffffffff82111562000b6f5762000b6e62000d7b565b5b62000b7a8262000daa565b9050602081019050919050565b600081519050919050565b600082825260208201905092915050565b600082825260208201905092915050565b600062000bc18262000c71565b915062000bce8362000c71565b9250827fffffffffffffffffffffffffffffffffffffffffffffffffffffffffffffffff0382111562000c065762000c0562000d1d565b5b828201905092915050565b600062000c1e8262000c51565b9050919050565b60007fffffffff0000000000000000000000000000000000000000000000000000000082169050919050565b600073ffffffffffffffffffffffffffffffffffffffff82169050919050565b6000819050919050565b60005b8381101562000c9b57808201518184015260208101905062000c7e565b8381111562000cab576000848401525b50505050565b6000600282049050600182168062000cca57607f821691505b6020821081141562000ce15762000ce062000d4c565b5b50919050565b62000cf28262000daa565b810181811067ffffffffffffffff8211171562000d145762000d1362000d7b565b5b80604052505050565b7f4e487b7100000000000000000000000000000000000000000000000000000000600052601160045260246000fd5b7f4e487b7100000000000000000000000000000000000000000000000000000000600052602260045260246000fd5b7f4e487b7100000000000000000000000000000000000000000000000000000000600052604160045260246000fd5b6000601f19601f8301169050919050565b7f4552433732313a207472616e7366657220746f206e6f6e20455243373231526560008201527f63656976657220696d706c656d656e7465720000000000000000000000000000602082015250565b7f4552433732313a20746f6b656e20616c7265616479206d696e74656400000000600082015250565b7f496e76616c696420746f6b656e49640000000000000000000000000000000000600082015250565b7f45524337323155524953746f726167653a2055524920736574206f66206e6f6e60008201527f6578697374656e7420746f6b656e000000000000000000000000000000000000602082015250565b7f4552433732313a206d696e7420746f20746865207a65726f2061646472657373600082015250565b62000edf8162000c25565b811462000eeb57600080fd5b50565b62000ef98162000c71565b811462000f0557600080fd5b50565b613f198062000f186000396000f3fe60806040526004361061011f5760003560e01c806351cff8d9116100a0578063b88d4fde11610064578063b88d4fde146103ea578063c87b56dd14610413578063e985e9c514610450578063f35e62271461048d578063f437bc59146104ca5761011f565b806351cff8d9146102f35780636352211e1461031c57806370a082311461035957806395d89b4114610396578063a22cb465146103c15761011f565b806323b872dd116100e757806323b872dd1461021d5780632be3b7c6146102465780632c4e722e14610262578063317707541461028d57806342842e0e146102ca5761011f565b806301ffc9a71461012457806306fdde0314610161578063081812fc1461018c578063095ea7b3146101c957806318160ddd146101f2575b600080fd5b34801561013057600080fd5b5061014b60048036038101906101469190612a6d565b6104f5565b6040516101589190613078565b60405180910390f35b34801561016d57600080fd5b506101766105d7565b6040516101839190613093565b60405180910390f35b34801561019857600080fd5b506101b360048036038101906101ae9190612b37565b610669565b6040516101c09190613011565b60405180910390f35b3480156101d557600080fd5b506101f060048036038101906101eb9190612a08565b6106ee565b005b3480156101fe57600080fd5b50610207610806565b604051610214919061342b565b60405180910390f35b34801561022957600080fd5b50610244600480360381019061023f9190612873565b61080c565b005b610260600480360381019061025b9190612979565b61086c565b005b34801561026e57600080fd5b506102776108e1565b604051610284919061342b565b60405180910390f35b34801561029957600080fd5b506102b460048036038101906102af9190612abf565b6108e7565b6040516102c19190613093565b60405180910390f35b3480156102d657600080fd5b506102f160048036038101906102ec9190612873565b610b2b565b005b3480156102ff57600080fd5b5061031a6004803603810190610315919061280e565b610b4b565b005b34801561032857600080fd5b50610343600480360381019061033e9190612b37565b610c2c565b6040516103509190613011565b60405180910390f35b34801561036557600080fd5b50610380600480360381019061037b91906127e5565b610cde565b60405161038d919061342b565b60405180910390f35b3480156103a257600080fd5b506103ab610d96565b6040516103b89190613093565b60405180910390f35b3480156103cd57600080fd5b506103e860048036038101906103e3919061293d565b610e28565b005b3480156103f657600080fd5b50610411600480360381019061040c91906128c2565b610fa9565b005b34801561041f57600080fd5b5061043a60048036038101906104359190612b37565b61100b565b6040516104479190613093565b60405180910390f35b34801561045c57600080fd5b5061047760048036038101906104729190612837565b61115d565b6040516104849190613078565b60405180910390f35b34801561049957600080fd5b506104b460048036038101906104af9190612abf565b6111f1565b6040516104c1919061342b565b60405180910390f35b3480156104d657600080fd5b506104df611427565b6040516104ec9190613011565b60405180910390f35b60007f80ac58cd000000000000000000000000000000000000000000000000000000007bffffffffffffffffffffffffffffffffffffffffffffffffffffffff1916827bffffffffffffffffffffffffffffffffffffffffffffffffffffffff191614806105c057507f5b5e139f000000000000000000000000000000000000000000000000000000007bffffffffffffffffffffffffffffffffffffffffffffffffffffffff1916827bffffffffffffffffffffffffffffffffffffffffffffffffffffffff1916145b806105d057506105cf82611460565b5b9050919050565b6060600080546105e690613729565b80601f016020809104026020016040519081016040528092919081815260200182805461061290613729565b801561065f5780601f106106345761010080835404028352916020019161065f565b820191906000526020600020905b81548152906001019060200180831161064257829003601f168201915b5050505050905090565b6000610674826114ca565b6106b3576040517f08c379a00000000000000000000000000000000000000000000000000000000081526004016106aa90613275565b60405180910390fd5b6004600083815260200190815260200160002060009054906101000a900473ffffffffffffffffffffffffffffffffffffffff169050919050565b60006106f982610c2c565b90508073ffffffffffffffffffffffffffffffffffffffff168373ffffffffffffffffffffffffffffffffffffffff16141561076a576040517f08c379a0000000000000000000000000000000000000000000000000000000008152600401610761906132f5565b60405180910390fd5b8073ffffffffffffffffffffffffffffffffffffffff16610789611536565b73ffffffffffffffffffffffffffffffffffffffff1614806107b857506107b7816107b2611536565b61115d565b5b6107f7576040517f08c379a00000000000000000000000000000000000000000000000000000000081526004016107ee90613195565b60405180910390fd5b610801838361153e565b505050565b60095481565b61081d610817611536565b826115f7565b61085c576040517f08c379a000000000000000000000000000000000000000000000000000000000815260040161085390613315565b60405180910390fd5b6108678383836116d5565b505050565b8160085461087a9190613597565b34146108bb576040517f08c379a00000000000000000000000000000000000000000000000000000000081526004016108b290613375565b60405180910390fd5b600060095490506108ce81868686611931565b6108d9818784611d75565b505050505050565b60085481565b60608273__Date__________________________________6308a9cf1790916040518263ffffffff1660e01b81526004016109229190613395565b60206040518083038186803b15801561093a57600080fd5b505af415801561094e573d6000803e3d6000fd5b505050506040513d601f19601f820116820180604052508101906109729190612a44565b6109b1576040517f08c379a00000000000000000000000000000000000000000000000000000000081526004016109a890613355565b60405180910390fd5b73__Date__________________________________634a721bca836040518263ffffffff1660e01b81526004016109e89190613410565b60206040518083038186803b158015610a0057600080fd5b505af4158015610a14573d6000803e3d6000fd5b505050506040513d601f19601f82011682018060405250810190610a389190612a44565b610a77576040517f08c379a0000000000000000000000000000000000000000000000000000000008152600401610a6e90613215565b60405180910390fd5b6000600a60008573__Date__________________________________63bbf98ae19091876040518363ffffffff1660e01b8152600401610ab89291906133b0565b60206040518083038186803b158015610ad057600080fd5b505af4158015610ae4573d6000803e3d6000fd5b505050506040513d601f19601f82011682018060405250810190610b089190612b60565b8152602001908152602001600020549050610b228161100b565b91505092915050565b610b4683838360405180602001604052806000815250610fa9565b505050565b600760009054906101000a900473ffffffffffffffffffffffffffffffffffffffff1673ffffffffffffffffffffffffffffffffffffffff16610b8c611536565b73ffffffffffffffffffffffffffffffffffffffff1614610be2576040517f08c379a0000000000000000000000000000000000000000000000000000000008152600401610bd990613295565b60405180910390fd5b8073ffffffffffffffffffffffffffffffffffffffff166108fc479081150290604051600060405180830381858888f19350505050158015610c28573d6000803e3d6000fd5b5050565b6000806002600084815260200190815260200160002060009054906101000a900473ffffffffffffffffffffffffffffffffffffffff169050600073ffffffffffffffffffffffffffffffffffffffff168173ffffffffffffffffffffffffffffffffffffffff161415610cd5576040517f08c379a0000000000000000000000000000000000000000000000000000000008152600401610ccc906131d5565b60405180910390fd5b80915050919050565b60008073ffffffffffffffffffffffffffffffffffffffff168273ffffffffffffffffffffffffffffffffffffffff161415610d4f576040517f08c379a0000000000000000000000000000000000000000000000000000000008152600401610d46906131b5565b60405180910390fd5b600360008373ffffffffffffffffffffffffffffffffffffffff1673ffffffffffffffffffffffffffffffffffffffff168152602001908152602001600020549050919050565b606060018054610da590613729565b80601f0160208091040260200160405190810160405280929190818152602001828054610dd190613729565b8015610e1e5780601f10610df357610100808354040283529160200191610e1e565b820191906000526020600020905b815481529060010190602001808311610e0157829003601f168201915b5050505050905090565b610e30611536565b73ffffffffffffffffffffffffffffffffffffffff168273ffffffffffffffffffffffffffffffffffffffff161415610e9e576040517f08c379a0000000000000000000000000000000000000000000000000000000008152600401610e9590613115565b60405180910390fd5b8060056000610eab611536565b73ffffffffffffffffffffffffffffffffffffffff1673ffffffffffffffffffffffffffffffffffffffff16815260200190815260200160002060008473ffffffffffffffffffffffffffffffffffffffff1673ffffffffffffffffffffffffffffffffffffffff16815260200190815260200160002060006101000a81548160ff0219169083151502179055508173ffffffffffffffffffffffffffffffffffffffff16610f58611536565b73ffffffffffffffffffffffffffffffffffffffff167f17307eab39ab6107e8899845ad3d59bd9653f200f220920489ca2b5937696c3183604051610f9d9190613078565b60405180910390a35050565b610fba610fb4611536565b836115f7565b610ff9576040517f08c379a0000000000000000000000000000000000000000000000000000000008152600401610ff090613315565b60405180910390fd5b61100584848484611dec565b50505050565b6060611016826114ca565b611055576040517f08c379a000000000000000000000000000000000000000000000000000000000815260040161104c90613255565b60405180910390fd5b600060066000848152602001908152602001600020805461107590613729565b80601f01602080910402602001604051908101604052809291908181526020018280546110a190613729565b80156110ee5780601f106110c3576101008083540402835291602001916110ee565b820191906000526020600020905b8154815290600101906020018083116110d157829003601f168201915b5050505050905060006110ff611e48565b9050600081511415611115578192505050611158565b60008251111561114a578082604051602001611132929190612fed565b60405160208183030381529060405292505050611158565b61115384611e5f565b925050505b919050565b6000600560008473ffffffffffffffffffffffffffffffffffffffff1673ffffffffffffffffffffffffffffffffffffffff16815260200190815260200160002060008373ffffffffffffffffffffffffffffffffffffffff1673ffffffffffffffffffffffffffffffffffffffff16815260200190815260200160002060009054906101000a900460ff16905092915050565b60008273__Date__________________________________6308a9cf1790916040518263ffffffff1660e01b815260040161122c9190613395565b60206040518083038186803b15801561124457600080fd5b505af4158015611258573d6000803e3d6000fd5b505050506040513d601f19601f8201168201806040525081019061127c9190612a44565b6112bb576040517f08c379a00000000000000000000000000000000000000000000000000000000081526004016112b290613355565b60405180910390fd5b73__Date__________________________________634a721bca836040518263ffffffff1660e01b81526004016112f29190613410565b60206040518083038186803b15801561130a57600080fd5b505af415801561131e573d6000803e3d6000fd5b505050506040513d601f19601f820116820180604052508101906113429190612a44565b611381576040517f08c379a000000000000000000000000000000000000000000000000000000000815260040161137890613215565b60405180910390fd5b600a60008473__Date__________________________________63bbf98ae19091866040518363ffffffff1660e01b81526004016113c09291906133b0565b60206040518083038186803b1580156113d857600080fd5b505af41580156113ec573d6000803e3d6000fd5b505050506040513d601f19601f820116820180604052508101906114109190612b60565b815260200190815260200160002054905092915050565b600760009054906101000a900473ffffffffffffffffffffffffffffffffffffffff1681565b600080823b905060008111915050919050565b60007f01ffc9a7000000000000000000000000000000000000000000000000000000007bffffffffffffffffffffffffffffffffffffffffffffffffffffffff1916827bffffffffffffffffffffffffffffffffffffffffffffffffffffffff1916149050919050565b60008073ffffffffffffffffffffffffffffffffffffffff166002600084815260200190815260200160002060009054906101000a900473ffffffffffffffffffffffffffffffffffffffff1673ffffffffffffffffffffffffffffffffffffffff1614159050919050565b600033905090565b816004600083815260200190815260200160002060006101000a81548173ffffffffffffffffffffffffffffffffffffffff021916908373ffffffffffffffffffffffffffffffffffffffff160217905550808273ffffffffffffffffffffffffffffffffffffffff166115b183610c2c565b73ffffffffffffffffffffffffffffffffffffffff167f8c5be1e5ebec7d5bd14f71427d1e84f3dd0314c0f7b2291e5b200ac8c7c3b92560405160405180910390a45050565b6000611602826114ca565b611641576040517f08c379a000000000000000000000000000000000000000000000000000000000815260040161163890613155565b60405180910390fd5b600061164c83610c2c565b90508073ffffffffffffffffffffffffffffffffffffffff168473ffffffffffffffffffffffffffffffffffffffff1614806116bb57508373ffffffffffffffffffffffffffffffffffffffff166116a384610669565b73ffffffffffffffffffffffffffffffffffffffff16145b806116cc57506116cb818561115d565b5b91505092915050565b8273ffffffffffffffffffffffffffffffffffffffff166116f582610c2c565b73ffffffffffffffffffffffffffffffffffffffff161461174b576040517f08c379a0000000000000000000000000000000000000000000000000000000008152600401611742906132b5565b60405180910390fd5b600073ffffffffffffffffffffffffffffffffffffffff168273ffffffffffffffffffffffffffffffffffffffff1614156117bb576040517f08c379a00000000000000000000000000000000000000000000000000000000081526004016117b2906130f5565b60405180910390fd5b6117c6838383611f06565b6117d160008261153e565b6001600360008573ffffffffffffffffffffffffffffffffffffffff1673ffffffffffffffffffffffffffffffffffffffff168152602001908152602001600020600082825461182191906135f1565b925050819055506001600360008473ffffffffffffffffffffffffffffffffffffffff1673ffffffffffffffffffffffffffffffffffffffff16815260200190815260200160002060008282546118789190613510565b92505081905550816002600083815260200190815260200160002060006101000a81548173ffffffffffffffffffffffffffffffffffffffff021916908373ffffffffffffffffffffffffffffffffffffffff160217905550808273ffffffffffffffffffffffffffffffffffffffff168473ffffffffffffffffffffffffffffffffffffffff167fddf252ad1be2c89b69c2b068fc378daa952ba7f163c4a11628f55a4df523b3ef60405160405180910390a4505050565b8273__Date__________________________________6308a9cf1790916040518263ffffffff1660e01b815260040161196a9190613395565b60206040518083038186803b15801561198257600080fd5b505af4158015611996573d6000803e3d6000fd5b505050506040513d601f19601f820116820180604052508101906119ba9190612a44565b6119f9576040517f08c379a00000000000000000000000000000000000000000000000000000000081526004016119f090613355565b60405180910390fd5b73__Date__________________________________634a721bca836040518263ffffffff1660e01b8152600401611a309190613410565b60206040518083038186803b158015611a4857600080fd5b505af4158015611a5c573d6000803e3d6000fd5b505050506040513d601f19601f82011682018060405250810190611a809190612a44565b611abf576040517f08c379a0000000000000000000000000000000000000000000000000000000008152600401611ab690613215565b60405180910390fd5b428373__Date__________________________________63a13c156a90918560006040518463ffffffff1660e01b8152600401611afe939291906133d9565b60206040518083038186803b158015611b1657600080fd5b505af4158015611b2a573d6000803e3d6000fd5b505050506040513d601f19601f82011682018060405250810190611b4e9190612b60565b1015611b8f576040517f08c379a0000000000000000000000000000000000000000000000000000000008152600401611b8690613175565b60405180910390fd5b6000604051806060016040528085600001518152602001856020015181526020018560400151815250905060008390505b6000831115611d6d5760008273__Date__________________________________63bbf98ae19091846040518363ffffffff1660e01b8152600401611c069291906133b0565b60206040518083038186803b158015611c1e57600080fd5b505af4158015611c32573d6000803e3d6000fd5b505050506040513d601f19601f82011682018060405250810190611c569190612b60565b90506000600a60008381526020019081526020016000205414611cae576040517f08c379a0000000000000000000000000000000000000000000000000000000008152600401611ca590613335565b60405180910390fd5b86600a6000838152602001908152602001600020819055508273__Date__________________________________63a8b2ee8a9091846040518363ffffffff1660e01b8152600401611d019291906133b0565b60806040518083038186803b158015611d1957600080fd5b505af4158015611d2d573d6000803e3d6000fd5b505050506040513d601f19601f82011682018060405250810190611d519190612afb565b80935081945050508380611d64906136ff565b94505050611bc0565b505050505050565b6009548314611db9576040517f08c379a0000000000000000000000000000000000000000000000000000000008152600401611db090613135565b60405180910390fd5b611dc38284611f0b565b611dcd8382611f29565b600160096000828254611de09190613510565b92505081905550505050565b611df78484846116d5565b611e0384848484611f9d565b611e42576040517f08c379a0000000000000000000000000000000000000000000000000000000008152600401611e39906130b5565b60405180910390fd5b50505050565b606060405180602001604052806000815250905090565b6060611e6a826114ca565b611ea9576040517f08c379a0000000000000000000000000000000000000000000000000000000008152600401611ea0906132d5565b60405180910390fd5b6000611eb3611e48565b90506000815111611ed35760405180602001604052806000815250611efe565b80611edd84612134565b604051602001611eee929190612fed565b6040516020818303038152906040525b915050919050565b505050565b611f258282604051806020016040528060008152506122e1565b5050565b611f32826114ca565b611f71576040517f08c379a0000000000000000000000000000000000000000000000000000000008152600401611f68906131f5565b60405180910390fd5b80600660008481526020019081526020016000209080519060200190611f9892919061250a565b505050565b6000611fbe8473ffffffffffffffffffffffffffffffffffffffff1661144d565b15612127578373ffffffffffffffffffffffffffffffffffffffff1663150b7a02611fe7611536565b8786866040518563ffffffff1660e01b8152600401612009949392919061302c565b602060405180830381600087803b15801561202357600080fd5b505af192505050801561205457506040513d601f19601f820116820180604052508101906120519190612a96565b60015b6120d7573d8060008114612084576040519150601f19603f3d011682016040523d82523d6000602084013e612089565b606091505b506000815114156120cf576040517f08c379a00000000000000000000000000000000000000000000000000000000081526004016120c6906130b5565b60405180910390fd5b805181602001fd5b63150b7a0260e01b7bffffffffffffffffffffffffffffffffffffffffffffffffffffffff1916817bffffffffffffffffffffffffffffffffffffffffffffffffffffffff19161491505061212c565b600190505b949350505050565b6060600082141561217c576040518060400160405280600181526020017f300000000000000000000000000000000000000000000000000000000000000081525090506122dc565b600082905060005b600082146121ae5780806121979061378c565b915050600a826121a79190613566565b9150612184565b60008167ffffffffffffffff8111156121f0577f4e487b7100000000000000000000000000000000000000000000000000000000600052604160045260246000fd5b6040519080825280601f01601f1916602001820160405280156122225781602001600182028036833780820191505090505b5090505b600085146122d55760018261223b91906135f1565b9150600a8561224a91906137d5565b60306122569190613510565b60f81b818381518110612292577f4e487b7100000000000000000000000000000000000000000000000000000000600052603260045260246000fd5b60200101907effffffffffffffffffffffffffffffffffffffffffffffffffffffffffffff1916908160001a905350600a856122ce9190613566565b9450612226565b8093505050505b919050565b6122eb838361233c565b6122f86000848484611f9d565b612337576040517f08c379a000000000000000000000000000000000000000000000000000000000815260040161232e906130b5565b60405180910390fd5b505050565b600073ffffffffffffffffffffffffffffffffffffffff168273ffffffffffffffffffffffffffffffffffffffff1614156123ac576040517f08c379a00000000000000000000000000000000000000000000000000000000081526004016123a390613235565b60405180910390fd5b6123b5816114ca565b156123f5576040517f08c379a00000000000000000000000000000000000000000000000000000000081526004016123ec906130d5565b60405180910390fd5b61240160008383611f06565b6001600360008473ffffffffffffffffffffffffffffffffffffffff1673ffffffffffffffffffffffffffffffffffffffff16815260200190815260200160002060008282546124519190613510565b92505081905550816002600083815260200190815260200160002060006101000a81548173ffffffffffffffffffffffffffffffffffffffff021916908373ffffffffffffffffffffffffffffffffffffffff160217905550808273ffffffffffffffffffffffffffffffffffffffff16600073ffffffffffffffffffffffffffffffffffffffff167fddf252ad1be2c89b69c2b068fc378daa952ba7f163c4a11628f55a4df523b3ef60405160405180910390a45050565b82805461251690613729565b90600052602060002090601f016020900481019282612538576000855561257f565b82601f1061255157805160ff191683800117855561257f565b8280016001018555821561257f579182015b8281111561257e578251825591602001919060010190612563565b5b50905061258c9190612590565b5090565b5b808211156125a9576000816000905550600101612591565b5090565b60006125c06125bb8461346b565b613446565b9050828152602081018484840111156125d857600080fd5b6125e38482856136bd565b509392505050565b60006125fe6125f98461349c565b613446565b90508281526020810184848401111561261657600080fd5b6126218482856136bd565b509392505050565b60008135905061263881613e70565b92915050565b60008135905061264d81613e87565b92915050565b60008135905061266281613e9e565b92915050565b60008151905061267781613e9e565b92915050565b60008135905061268c81613eb5565b92915050565b6000815190506126a181613eb5565b92915050565b600082601f8301126126b857600080fd5b81356126c88482602086016125ad565b91505092915050565b600082601f8301126126e257600080fd5b81356126f28482602086016125eb565b91505092915050565b60006060828403121561270d57600080fd5b6127176060613446565b90506000612727848285016127bb565b600083015250602061273b848285016127bb565b602083015250604061274f848285016127bb565b60408301525092915050565b60006060828403121561276d57600080fd5b6127776060613446565b90506000612787848285016127d0565b600083015250602061279b848285016127d0565b60208301525060406127af848285016127d0565b60408301525092915050565b6000813590506127ca81613ecc565b92915050565b6000815190506127df81613ecc565b92915050565b6000602082840312156127f757600080fd5b600061280584828501612629565b91505092915050565b60006020828403121561282057600080fd5b600061282e8482850161263e565b91505092915050565b6000806040838503121561284a57600080fd5b600061285885828601612629565b925050602061286985828601612629565b9150509250929050565b60008060006060848603121561288857600080fd5b600061289686828701612629565b93505060206128a786828701612629565b92505060406128b8868287016127bb565b9150509250925092565b600080600080608085870312156128d857600080fd5b60006128e687828801612629565b94505060206128f787828801612629565b9350506040612908878288016127bb565b925050606085013567ffffffffffffffff81111561292557600080fd5b612931878288016126a7565b91505092959194509250565b6000806040838503121561295057600080fd5b600061295e85828601612629565b925050602061296f85828601612653565b9150509250929050565b600080600080600060e0868803121561299157600080fd5b600061299f88828901612629565b95505060206129b0888289016126fb565b94505060806129c1888289016127bb565b93505060a06129d2888289016127bb565b92505060c086013567ffffffffffffffff8111156129ef57600080fd5b6129fb888289016126d1565b9150509295509295909350565b60008060408385031215612a1b57600080fd5b6000612a2985828601612629565b9250506020612a3a858286016127bb565b9150509250929050565b600060208284031215612a5657600080fd5b6000612a6484828501612668565b91505092915050565b600060208284031215612a7f57600080fd5b6000612a8d8482850161267d565b91505092915050565b600060208284031215612aa857600080fd5b6000612ab684828501612692565b91505092915050565b60008060808385031215612ad257600080fd5b6000612ae0858286016126fb565b9250506060612af1858286016127bb565b9150509250929050565b60008060808385031215612b0e57600080fd5b6000612b1c8582860161275b565b9250506060612b2d858286016127d0565b9150509250929050565b600060208284031215612b4957600080fd5b6000612b57848285016127bb565b91505092915050565b600060208284031215612b7257600080fd5b6000612b80848285016127d0565b91505092915050565b612b9281613625565b82525050565b612ba181613649565b82525050565b6000612bb2826134cd565b612bbc81856134e3565b9350612bcc8185602086016136cc565b612bd5816138c2565b840191505092915050565b612be9816136ab565b82525050565b6000612bfa826134d8565b612c0481856134f4565b9350612c148185602086016136cc565b612c1d816138c2565b840191505092915050565b6000612c33826134d8565b612c3d8185613505565b9350612c4d8185602086016136cc565b80840191505092915050565b6000612c666032836134f4565b9150612c71826138d3565b604082019050919050565b6000612c89601c836134f4565b9150612c9482613922565b602082019050919050565b6000612cac6024836134f4565b9150612cb78261394b565b604082019050919050565b6000612ccf6019836134f4565b9150612cda8261399a565b602082019050919050565b6000612cf2600f836134f4565b9150612cfd826139c3565b602082019050919050565b6000612d15602c836134f4565b9150612d20826139ec565b604082019050919050565b6000612d38601c836134f4565b9150612d4382613a3b565b602082019050919050565b6000612d5b6038836134f4565b9150612d6682613a64565b604082019050919050565b6000612d7e602a836134f4565b9150612d8982613ab3565b604082019050919050565b6000612da16029836134f4565b9150612dac82613b02565b604082019050919050565b6000612dc4602e836134f4565b9150612dcf82613b51565b604082019050919050565b6000612de7600c836134f4565b9150612df282613ba0565b602082019050919050565b6000612e0a6020836134f4565b9150612e1582613bc9565b602082019050919050565b6000612e2d6031836134f4565b9150612e3882613bf2565b604082019050919050565b6000612e50602c836134f4565b9150612e5b82613c41565b604082019050919050565b6000612e736016836134f4565b9150612e7e82613c90565b602082019050919050565b6000612e966029836134f4565b9150612ea182613cb9565b604082019050919050565b6000612eb9602f836134f4565b9150612ec482613d08565b604082019050919050565b6000612edc6021836134f4565b9150612ee782613d57565b604082019050919050565b6000612eff6031836134f4565b9150612f0a82613da6565b604082019050919050565b6000612f226012836134f4565b9150612f2d82613df5565b602082019050919050565b6000612f45600c836134f4565b9150612f5082613e1e565b602082019050919050565b6000612f686010836134f4565b9150612f7382613e47565b602082019050919050565b606082016000820151612f946000850182612fde565b506020820151612fa76020850182612fde565b506040820151612fba6040850182612fde565b50505050565b612fc9816136a1565b82525050565b612fd8816136a1565b82525050565b612fe7816136a1565b82525050565b6000612ff98285612c28565b91506130058284612c28565b91508190509392505050565b60006020820190506130266000830184612b89565b92915050565b60006080820190506130416000830187612b89565b61304e6020830186612b89565b61305b6040830185612fc0565b818103606083015261306d8184612ba7565b905095945050505050565b600060208201905061308d6000830184612b98565b92915050565b600060208201905081810360008301526130ad8184612bef565b905092915050565b600060208201905081810360008301526130ce81612c59565b9050919050565b600060208201905081810360008301526130ee81612c7c565b9050919050565b6000602082019050818103600083015261310e81612c9f565b9050919050565b6000602082019050818103600083015261312e81612cc2565b9050919050565b6000602082019050818103600083015261314e81612ce5565b9050919050565b6000602082019050818103600083015261316e81612d08565b9050919050565b6000602082019050818103600083015261318e81612d2b565b9050919050565b600060208201905081810360008301526131ae81612d4e565b9050919050565b600060208201905081810360008301526131ce81612d71565b9050919050565b600060208201905081810360008301526131ee81612d94565b9050919050565b6000602082019050818103600083015261320e81612db7565b9050919050565b6000602082019050818103600083015261322e81612dda565b9050919050565b6000602082019050818103600083015261324e81612dfd565b9050919050565b6000602082019050818103600083015261326e81612e20565b9050919050565b6000602082019050818103600083015261328e81612e43565b9050919050565b600060208201905081810360008301526132ae81612e66565b9050919050565b600060208201905081810360008301526132ce81612e89565b9050919050565b600060208201905081810360008301526132ee81612eac565b9050919050565b6000602082019050818103600083015261330e81612ecf565b9050919050565b6000602082019050818103600083015261332e81612ef2565b9050919050565b6000602082019050818103600083015261334e81612f15565b9050919050565b6000602082019050818103600083015261336e81612f38565b9050919050565b6000602082019050818103600083015261338e81612f5b565b9050919050565b60006060820190506133aa6000830184612f7e565b92915050565b60006080820190506133c56000830185612f7e565b6133d26060830184612fcf565b9392505050565b600060a0820190506133ee6000830186612f7e565b6133fb6060830185612fcf565b6134086080830184612be0565b949350505050565b60006020820190506134256000830184612fcf565b92915050565b60006020820190506134406000830184612fc0565b92915050565b6000613450613461565b905061345c828261375b565b919050565b6000604051905090565b600067ffffffffffffffff82111561348657613485613893565b5b61348f826138c2565b9050602081019050919050565b600067ffffffffffffffff8211156134b7576134b6613893565b5b6134c0826138c2565b9050602081019050919050565b600081519050919050565b600081519050919050565b600082825260208201905092915050565b600082825260208201905092915050565b600081905092915050565b600061351b826136a1565b9150613526836136a1565b9250827fffffffffffffffffffffffffffffffffffffffffffffffffffffffffffffffff0382111561355b5761355a613806565b5b828201905092915050565b6000613571826136a1565b915061357c836136a1565b92508261358c5761358b613835565b5b828204905092915050565b60006135a2826136a1565b91506135ad836136a1565b9250817fffffffffffffffffffffffffffffffffffffffffffffffffffffffffffffffff04831182151516156135e6576135e5613806565b5b828202905092915050565b60006135fc826136a1565b9150613607836136a1565b92508282101561361a57613619613806565b5b828203905092915050565b600061363082613681565b9050919050565b600061364282613681565b9050919050565b60008115159050919050565b60007fffffffff0000000000000000000000000000000000000000000000000000000082169050919050565b600073ffffffffffffffffffffffffffffffffffffffff82169050919050565b6000819050919050565b60006136b6826136a1565b9050919050565b82818337600083830152505050565b60005b838110156136ea5780820151818401526020810190506136cf565b838111156136f9576000848401525b50505050565b600061370a826136a1565b9150600082141561371e5761371d613806565b5b600182039050919050565b6000600282049050600182168061374157607f821691505b6020821081141561375557613754613864565b5b50919050565b613764826138c2565b810181811067ffffffffffffffff8211171561378357613782613893565b5b80604052505050565b6000613797826136a1565b91507fffffffffffffffffffffffffffffffffffffffffffffffffffffffffffffffff8214156137ca576137c9613806565b5b600182019050919050565b60006137e0826136a1565b91506137eb836136a1565b9250826137fb576137fa613835565b5b828206905092915050565b7f4e487b7100000000000000000000000000000000000000000000000000000000600052601160045260246000fd5b7f4e487b7100000000000000000000000000000000000000000000000000000000600052601260045260246000fd5b7f4e487b7100000000000000000000000000000000000000000000000000000000600052602260045260246000fd5b7f4e487b7100000000000000000000000000000000000000000000000000000000600052604160045260246000fd5b6000601f19601f8301169050919050565b7f4552433732313a207472616e7366657220746f206e6f6e20455243373231526560008201527f63656976657220696d706c656d656e7465720000000000000000000000000000602082015250565b7f4552433732313a20746f6b656e20616c7265616479206d696e74656400000000600082015250565b7f4552433732313a207472616e7366657220746f20746865207a65726f2061646460008201527f7265737300000000000000000000000000000000000000000000000000000000602082015250565b7f4552433732313a20617070726f766520746f2063616c6c657200000000000000600082015250565b7f496e76616c696420746f6b656e49640000000000000000000000000000000000600082015250565b7f4552433732313a206f70657261746f7220717565727920666f72206e6f6e657860008201527f697374656e7420746f6b656e0000000000000000000000000000000000000000602082015250565b7f43616e6e6f7420626f6f6b2074696d6520696e20746865207061737400000000600082015250565b7f4552433732313a20617070726f76652063616c6c6572206973206e6f74206f7760008201527f6e6572206e6f7220617070726f76656420666f7220616c6c0000000000000000602082015250565b7f4552433732313a2062616c616e636520717565727920666f7220746865207a6560008201527f726f206164647265737300000000000000000000000000000000000000000000602082015250565b7f4552433732313a206f776e657220717565727920666f72206e6f6e657869737460008201527f656e7420746f6b656e0000000000000000000000000000000000000000000000602082015250565b7f45524337323155524953746f726167653a2055524920736574206f66206e6f6e60008201527f6578697374656e7420746f6b656e000000000000000000000000000000000000602082015250565b7f496e76616c696420686f75720000000000000000000000000000000000000000600082015250565b7f4552433732313a206d696e7420746f20746865207a65726f2061646472657373600082015250565b7f45524337323155524953746f726167653a2055524920717565727920666f722060008201527f6e6f6e6578697374656e7420746f6b656e000000000000000000000000000000602082015250565b7f4552433732313a20617070726f76656420717565727920666f72206e6f6e657860008201527f697374656e7420746f6b656e0000000000000000000000000000000000000000602082015250565b7f4f6e6c7920686f73742063616e20776974686472617700000000000000000000600082015250565b7f4552433732313a207472616e73666572206f6620746f6b656e2074686174206960008201527f73206e6f74206f776e0000000000000000000000000000000000000000000000602082015250565b7f4552433732314d657461646174613a2055524920717565727920666f72206e6f60008201527f6e6578697374656e7420746f6b656e0000000000000000000000000000000000602082015250565b7f4552433732313a20617070726f76616c20746f2063757272656e74206f776e6560008201527f7200000000000000000000000000000000000000000000000000000000000000602082015250565b7f4552433732313a207472616e736665722063616c6c6572206973206e6f74206f60008201527f776e6572206e6f7220617070726f766564000000000000000000000000000000602082015250565b7f556e617661696c61626c6520686f7572732e0000000000000000000000000000600082015250565b7f496e76616c696420646174650000000000000000000000000000000000000000600082015250565b7f496e636f727265637420616d6f756e7400000000000000000000000000000000600082015250565b613e7981613625565b8114613e8457600080fd5b50565b613e9081613637565b8114613e9b57600080fd5b50565b613ea781613649565b8114613eb257600080fd5b50565b613ebe81613655565b8114613ec957600080fd5b50565b613ed5816136a1565b8114613ee057600080fd5b5056fea26469706673582212209c90c4ed4c4e0c83a4dd81f9b6af137ec781b486bdd28ba43e7890dae248c82d64736f6c63430008040033",
  "immutableReferences": {},
  "source": "// contracts/Nala.sol\n// SPDX-License-Identifier: MIT\npragma solidity ^0.8.0;\n\nimport \"@openzeppelin/contracts/token/ERC721/ERC721.sol\";\nimport \"@openzeppelin/contracts/token/ERC721/extensions/ERC721Enumerable.sol\";\nimport \"@openzeppelin/contracts/token/ERC721/extensions/ERC721URIStorage.sol\";\n\nimport \"./utils/Date.sol\";\n\ncontract Nala is ERC721URIStorage {\n    using Date for date;\n    address public host;\n\n    uint public rate;\n\n    uint public totalSupply;\n\n    // Mapping from int(datetime YYYYMMDDHH) to token id\n    mapping(uint256 => uint256) private _calendar;\n\n    // inherited URI functionality \n\n    // mapping(uint256 => string) private _tokenURIs\n    // function tokenURI(uint256 tokenId) public view virtual override returns (string memory)\n\n    function scheduledURI(date memory d, uint hour) public view returns (string memory) {\n        require(d.isValidDate(), 'Invalid date');\n        require(Date.isValidHour(hour), 'Invalid hour');\n        uint256 tokenId = _calendar[d.toInt(hour)];\n        // special case for tokenId == 0?\n        return tokenURI(tokenId);\n    }\n\n    constructor(string memory name, string memory symbol, uint _rate, string memory _hostURI) ERC721(name, symbol) {\n        rate = _rate;\n        host = _msgSender();\n        mint(0, host, _hostURI);\n    }\n\n    function mint(uint256 tokenId, address recepient, string memory _tokenURI) internal {\n       require(tokenId == totalSupply, \"Invalid tokenId\");\n       _safeMint(recepient, tokenId);\n       _setTokenURI(tokenId, _tokenURI);\n       totalSupply += 1;\n    }\n\n    // unused internally - frontend only? \n    function checkHourAvailability(date memory d, uint hour) public view returns (uint256) {\n        require(d.isValidDate(), 'Invalid date');\n        require(Date.isValidHour(hour), 'Invalid hour');\n        return _calendar[d.toInt(hour)];\n    }\n\n    // debt: timezone as property of contract (declared in constructor)? \n    // || as input to booking?\n    function bookHours(uint256 tokenId, date memory openDate, uint openHour, uint displayHours) internal {\n        require(openDate.isValidDate(), 'Invalid date');\n        require(Date.isValidHour(openHour), 'Invalid hour');\n        require(openDate.timestampFromDateTime(openHour, 0) >= block.timestamp, 'Cannot book time in the past');\n        date memory _date = date({year: openDate.year, month: openDate.month, day: openDate.day});\n        uint _hour = openHour;\n        // there's room for more efficiency with date.toInt conversions unnecessary \n        // each iteration\n        while (displayHours > 0) {\n           uint _requestedInt = _date.toInt(_hour);\n           if (_calendar[_requestedInt] != 0) {\n               revert('Unavailable hours.');\n           }\n           _calendar[_requestedInt] = tokenId;\n           (_date, _hour) = _date.incrementHour(_hour);\n           displayHours--;\n        }\n    }\n\n    function book(address guest, date memory openDate, uint openHour, uint displayHours, string memory _tokenURI) public payable {\n       require(msg.value == rate * displayHours, \"Incorrect amount\");\n       uint256 tokenId = totalSupply;\n       bookHours(tokenId, openDate, openHour, displayHours);\n       mint(tokenId, guest, _tokenURI);\n    }\n\n    function withdraw(address payable recepient) public {\n        require(_msgSender() == host, \"Only host can withdraw\");\n        recepient.transfer(address(this).balance);\n    }\n}\n",
  "sourcePath": "/Users/nicholassclafani/code/crypto/github/nms-7/nala/contracts/Nala.sol",
  "compiler": {
    "name": "solc",
    "version": "0.8.4+commit.c7e474f2.Emscripten.clang"
  },
  "schemaVersion": "3.4.2",
  "updatedAt": "2021-09-01T19:37:35.926Z",
  "devdoc": {
    "kind": "dev",
    "methods": {
      "approve(address,uint256)": {
        "details": "See {IERC721-approve}."
      },
      "balanceOf(address)": {
        "details": "See {IERC721-balanceOf}."
      },
      "getApproved(uint256)": {
        "details": "See {IERC721-getApproved}."
      },
      "isApprovedForAll(address,address)": {
        "details": "See {IERC721-isApprovedForAll}."
      },
      "name()": {
        "details": "See {IERC721Metadata-name}."
      },
      "ownerOf(uint256)": {
        "details": "See {IERC721-ownerOf}."
      },
      "safeTransferFrom(address,address,uint256)": {
        "details": "See {IERC721-safeTransferFrom}."
      },
      "safeTransferFrom(address,address,uint256,bytes)": {
        "details": "See {IERC721-safeTransferFrom}."
      },
      "setApprovalForAll(address,bool)": {
        "details": "See {IERC721-setApprovalForAll}."
      },
      "supportsInterface(bytes4)": {
        "details": "See {IERC165-supportsInterface}."
      },
      "symbol()": {
        "details": "See {IERC721Metadata-symbol}."
      },
      "tokenURI(uint256)": {
        "details": "See {IERC721Metadata-tokenURI}."
      },
      "transferFrom(address,address,uint256)": {
        "details": "See {IERC721-transferFrom}."
      }
    },
    "version": 1
  },
  "userdoc": {
    "kind": "user",
    "methods": {},
    "version": 1
  }
}