{
  "contractName": "Nala",
  "abi": [
    {
      "inputs": [
        {
          "internalType": "string",
          "name": "name",
          "type": "string"
        },
        {
          "internalType": "string",
          "name": "symbol",
          "type": "string"
        },
        {
          "internalType": "uint256",
          "name": "_rate",
          "type": "uint256"
        },
        {
          "internalType": "string",
          "name": "_hostURI",
          "type": "string"
        }
      ],
      "stateMutability": "nonpayable",
      "type": "constructor"
    },
    {
      "anonymous": false,
      "inputs": [
        {
          "indexed": true,
          "internalType": "address",
          "name": "owner",
          "type": "address"
        },
        {
          "indexed": true,
          "internalType": "address",
          "name": "approved",
          "type": "address"
        },
        {
          "indexed": true,
          "internalType": "uint256",
          "name": "tokenId",
          "type": "uint256"
        }
      ],
      "name": "Approval",
      "type": "event"
    },
    {
      "anonymous": false,
      "inputs": [
        {
          "indexed": true,
          "internalType": "address",
          "name": "owner",
          "type": "address"
        },
        {
          "indexed": true,
          "internalType": "address",
          "name": "operator",
          "type": "address"
        },
        {
          "indexed": false,
          "internalType": "bool",
          "name": "approved",
          "type": "bool"
        }
      ],
      "name": "ApprovalForAll",
      "type": "event"
    },
    {
      "anonymous": false,
      "inputs": [
        {
          "indexed": true,
          "internalType": "address",
          "name": "from",
          "type": "address"
        },
        {
          "indexed": true,
          "internalType": "address",
          "name": "to",
          "type": "address"
        },
        {
          "indexed": true,
          "internalType": "uint256",
          "name": "tokenId",
          "type": "uint256"
        }
      ],
      "name": "Transfer",
      "type": "event"
    },
    {
      "inputs": [
        {
          "internalType": "address",
          "name": "to",
          "type": "address"
        },
        {
          "internalType": "uint256",
          "name": "tokenId",
          "type": "uint256"
        }
      ],
      "name": "approve",
      "outputs": [],
      "stateMutability": "nonpayable",
      "type": "function"
    },
    {
      "inputs": [
        {
          "internalType": "address",
          "name": "owner",
          "type": "address"
        }
      ],
      "name": "balanceOf",
      "outputs": [
        {
          "internalType": "uint256",
          "name": "",
          "type": "uint256"
        }
      ],
      "stateMutability": "view",
      "type": "function"
    },
    {
      "inputs": [
        {
          "internalType": "uint256",
          "name": "tokenId",
          "type": "uint256"
        }
      ],
      "name": "getApproved",
      "outputs": [
        {
          "internalType": "address",
          "name": "",
          "type": "address"
        }
      ],
      "stateMutability": "view",
      "type": "function"
    },
    {
      "inputs": [],
      "name": "host",
      "outputs": [
        {
          "internalType": "address",
          "name": "",
          "type": "address"
        }
      ],
      "stateMutability": "view",
      "type": "function"
    },
    {
      "inputs": [
        {
          "internalType": "address",
          "name": "owner",
          "type": "address"
        },
        {
          "internalType": "address",
          "name": "operator",
          "type": "address"
        }
      ],
      "name": "isApprovedForAll",
      "outputs": [
        {
          "internalType": "bool",
          "name": "",
          "type": "bool"
        }
      ],
      "stateMutability": "view",
      "type": "function"
    },
    {
      "inputs": [],
      "name": "name",
      "outputs": [
        {
          "internalType": "string",
          "name": "",
          "type": "string"
        }
      ],
      "stateMutability": "view",
      "type": "function"
    },
    {
      "inputs": [
        {
          "internalType": "uint256",
          "name": "tokenId",
          "type": "uint256"
        }
      ],
      "name": "ownerOf",
      "outputs": [
        {
          "internalType": "address",
          "name": "",
          "type": "address"
        }
      ],
      "stateMutability": "view",
      "type": "function"
    },
    {
      "inputs": [],
      "name": "rate",
      "outputs": [
        {
          "internalType": "uint256",
          "name": "",
          "type": "uint256"
        }
      ],
      "stateMutability": "view",
      "type": "function"
    },
    {
      "inputs": [
        {
          "internalType": "address",
          "name": "from",
          "type": "address"
        },
        {
          "internalType": "address",
          "name": "to",
          "type": "address"
        },
        {
          "internalType": "uint256",
          "name": "tokenId",
          "type": "uint256"
        }
      ],
      "name": "safeTransferFrom",
      "outputs": [],
      "stateMutability": "nonpayable",
      "type": "function"
    },
    {
      "inputs": [
        {
          "internalType": "address",
          "name": "from",
          "type": "address"
        },
        {
          "internalType": "address",
          "name": "to",
          "type": "address"
        },
        {
          "internalType": "uint256",
          "name": "tokenId",
          "type": "uint256"
        },
        {
          "internalType": "bytes",
          "name": "_data",
          "type": "bytes"
        }
      ],
      "name": "safeTransferFrom",
      "outputs": [],
      "stateMutability": "nonpayable",
      "type": "function"
    },
    {
      "inputs": [
        {
          "internalType": "address",
          "name": "operator",
          "type": "address"
        },
        {
          "internalType": "bool",
          "name": "approved",
          "type": "bool"
        }
      ],
      "name": "setApprovalForAll",
      "outputs": [],
      "stateMutability": "nonpayable",
      "type": "function"
    },
    {
      "inputs": [
        {
          "internalType": "bytes4",
          "name": "interfaceId",
          "type": "bytes4"
        }
      ],
      "name": "supportsInterface",
      "outputs": [
        {
          "internalType": "bool",
          "name": "",
          "type": "bool"
        }
      ],
      "stateMutability": "view",
      "type": "function"
    },
    {
      "inputs": [],
      "name": "symbol",
      "outputs": [
        {
          "internalType": "string",
          "name": "",
          "type": "string"
        }
      ],
      "stateMutability": "view",
      "type": "function"
    },
    {
      "inputs": [
        {
          "internalType": "uint256",
          "name": "tokenId",
          "type": "uint256"
        }
      ],
      "name": "tokenURI",
      "outputs": [
        {
          "internalType": "string",
          "name": "",
          "type": "string"
        }
      ],
      "stateMutability": "view",
      "type": "function"
    },
    {
      "inputs": [],
      "name": "totalSupply",
      "outputs": [
        {
          "internalType": "uint256",
          "name": "",
          "type": "uint256"
        }
      ],
      "stateMutability": "view",
      "type": "function"
    },
    {
      "inputs": [
        {
          "internalType": "address",
          "name": "from",
          "type": "address"
        },
        {
          "internalType": "address",
          "name": "to",
          "type": "address"
        },
        {
          "internalType": "uint256",
          "name": "tokenId",
          "type": "uint256"
        }
      ],
      "name": "transferFrom",
      "outputs": [],
      "stateMutability": "nonpayable",
      "type": "function"
    },
    {
      "inputs": [
        {
          "components": [
            {
              "internalType": "uint256",
              "name": "year",
              "type": "uint256"
            },
            {
              "internalType": "uint256",
              "name": "month",
              "type": "uint256"
            },
            {
              "internalType": "uint256",
              "name": "day",
              "type": "uint256"
            }
          ],
          "internalType": "struct date",
          "name": "d",
          "type": "tuple"
        },
        {
          "internalType": "uint256",
          "name": "hour",
          "type": "uint256"
        }
      ],
      "name": "scheduledURI",
      "outputs": [
        {
          "internalType": "string",
          "name": "",
          "type": "string"
        }
      ],
      "stateMutability": "view",
      "type": "function"
    },
    {
      "inputs": [],
      "name": "currentURI",
      "outputs": [
        {
          "internalType": "string",
          "name": "",
          "type": "string"
        }
      ],
      "stateMutability": "view",
      "type": "function"
    },
    {
      "inputs": [
        {
          "components": [
            {
              "internalType": "uint256",
              "name": "year",
              "type": "uint256"
            },
            {
              "internalType": "uint256",
              "name": "month",
              "type": "uint256"
            },
            {
              "internalType": "uint256",
              "name": "day",
              "type": "uint256"
            }
          ],
          "internalType": "struct date",
          "name": "d",
          "type": "tuple"
        },
        {
          "internalType": "uint256",
          "name": "hour",
          "type": "uint256"
        }
      ],
      "name": "checkHourAvailability",
      "outputs": [
        {
          "internalType": "uint256",
          "name": "",
          "type": "uint256"
        }
      ],
      "stateMutability": "view",
      "type": "function"
    },
    {
      "inputs": [
        {
          "internalType": "address",
          "name": "guest",
          "type": "address"
        },
        {
          "components": [
            {
              "internalType": "uint256",
              "name": "year",
              "type": "uint256"
            },
            {
              "internalType": "uint256",
              "name": "month",
              "type": "uint256"
            },
            {
              "internalType": "uint256",
              "name": "day",
              "type": "uint256"
            }
          ],
          "internalType": "struct date",
          "name": "openDate",
          "type": "tuple"
        },
        {
          "internalType": "uint256",
          "name": "openHour",
          "type": "uint256"
        },
        {
          "internalType": "uint256",
          "name": "displayHours",
          "type": "uint256"
        },
        {
          "internalType": "string",
          "name": "_tokenURI",
          "type": "string"
        }
      ],
      "name": "book",
      "outputs": [],
      "stateMutability": "payable",
      "type": "function"
    },
    {
      "inputs": [
        {
          "internalType": "address payable",
          "name": "recepient",
          "type": "address"
        }
      ],
      "name": "withdraw",
      "outputs": [],
      "stateMutability": "nonpayable",
      "type": "function"
    }
  ],
  "bytecode": "0x60806040523480156200001157600080fd5b5060405162004f0838038062004f0883398181016040528101906200003791906200084d565b8383816000908051906020019062000051929190620006d1565b5080600190805190602001906200006a929190620006d1565b50505081600881905550620000846200010460201b60201c565b600760006101000a81548173ffffffffffffffffffffffffffffffffffffffff021916908373ffffffffffffffffffffffffffffffffffffffff160217905550620000fa6000600760009054906101000a900473ffffffffffffffffffffffffffffffffffffffff16836200010c60201b60201c565b5050505062000f08565b600033905090565b600954831462000153576040517f08c379a00000000000000000000000000000000000000000000000000000000081526004016200014a9062000ac2565b60405180910390fd5b6200016582846200019860201b60201c565b620001778382620001be60201b60201c565b6001600960008282546200018c919062000bb4565b92505081905550505050565b620001ba8282604051806020016040528060008152506200023f60201b60201c565b5050565b620001cf82620002ad60201b60201c565b62000211576040517f08c379a0000000000000000000000000000000000000000000000000000000008152600401620002089062000ae4565b60405180910390fd5b806006600084815260200190815260200160002090805190602001906200023a929190620006d1565b505050565b6200025183836200031960201b60201c565b620002666000848484620004ff60201b60201c565b620002a8576040517f08c379a00000000000000000000000000000000000000000000000000000000081526004016200029f9062000a7e565b60405180910390fd5b505050565b60008073ffffffffffffffffffffffffffffffffffffffff166002600084815260200190815260200160002060009054906101000a900473ffffffffffffffffffffffffffffffffffffffff1673ffffffffffffffffffffffffffffffffffffffff1614159050919050565b600073ffffffffffffffffffffffffffffffffffffffff168273ffffffffffffffffffffffffffffffffffffffff1614156200038c576040517f08c379a0000000000000000000000000000000000000000000000000000000008152600401620003839062000b06565b60405180910390fd5b6200039d81620002ad60201b60201c565b15620003e0576040517f08c379a0000000000000000000000000000000000000000000000000000000008152600401620003d79062000aa0565b60405180910390fd5b620003f460008383620006b960201b60201c565b6001600360008473ffffffffffffffffffffffffffffffffffffffff1673ffffffffffffffffffffffffffffffffffffffff168152602001908152602001600020600082825462000446919062000bb4565b92505081905550816002600083815260200190815260200160002060006101000a81548173ffffffffffffffffffffffffffffffffffffffff021916908373ffffffffffffffffffffffffffffffffffffffff160217905550808273ffffffffffffffffffffffffffffffffffffffff16600073ffffffffffffffffffffffffffffffffffffffff167fddf252ad1be2c89b69c2b068fc378daa952ba7f163c4a11628f55a4df523b3ef60405160405180910390a45050565b60006200052d8473ffffffffffffffffffffffffffffffffffffffff16620006be60201b620015241760201c565b15620006ac578373ffffffffffffffffffffffffffffffffffffffff1663150b7a026200055f6200010460201b60201c565b8786866040518563ffffffff1660e01b815260040162000583949392919062000a2a565b602060405180830381600087803b1580156200059e57600080fd5b505af1925050508015620005d257506040513d601f19601f82011682018060405250810190620005cf919062000821565b60015b6200065b573d806000811462000605576040519150601f19603f3d011682016040523d82523d6000602084013e6200060a565b606091505b5060008151141562000653576040517f08c379a00000000000000000000000000000000000000000000000000000000081526004016200064a9062000a7e565b60405180910390fd5b805181602001fd5b63150b7a0260e01b7bffffffffffffffffffffffffffffffffffffffffffffffffffffffff1916817bffffffffffffffffffffffffffffffffffffffffffffffffffffffff191614915050620006b1565b600190505b949350505050565b505050565b600080823b905060008111915050919050565b828054620006df9062000cb1565b90600052602060002090601f0160209004810192826200070357600085556200074f565b82601f106200071e57805160ff19168380011785556200074f565b828001600101855582156200074f579182015b828111156200074e57825182559160200191906001019062000731565b5b5090506200075e919062000762565b5090565b5b808211156200077d57600081600090555060010162000763565b5090565b600062000798620007928462000b51565b62000b28565b905082815260208101848484011115620007b157600080fd5b620007be84828562000c7b565b509392505050565b600081519050620007d78162000ed4565b92915050565b600082601f830112620007ef57600080fd5b81516200080184826020860162000781565b91505092915050565b6000815190506200081b8162000eee565b92915050565b6000602082840312156200083457600080fd5b60006200084484828501620007c6565b91505092915050565b600080600080608085870312156200086457600080fd5b600085015167ffffffffffffffff8111156200087f57600080fd5b6200088d87828801620007dd565b945050602085015167ffffffffffffffff811115620008ab57600080fd5b620008b987828801620007dd565b9350506040620008cc878288016200080a565b925050606085015167ffffffffffffffff811115620008ea57600080fd5b620008f887828801620007dd565b91505092959194509250565b6200090f8162000c11565b82525050565b6000620009228262000b87565b6200092e818562000b92565b93506200094081856020860162000c7b565b6200094b8162000daa565b840191505092915050565b60006200096560328362000ba3565b9150620009728262000dbb565b604082019050919050565b60006200098c601c8362000ba3565b9150620009998262000e0a565b602082019050919050565b6000620009b3600f8362000ba3565b9150620009c08262000e33565b602082019050919050565b6000620009da602e8362000ba3565b9150620009e78262000e5c565b604082019050919050565b600062000a0160208362000ba3565b915062000a0e8262000eab565b602082019050919050565b62000a248162000c71565b82525050565b600060808201905062000a41600083018762000904565b62000a50602083018662000904565b62000a5f604083018562000a19565b818103606083015262000a73818462000915565b905095945050505050565b6000602082019050818103600083015262000a998162000956565b9050919050565b6000602082019050818103600083015262000abb816200097d565b9050919050565b6000602082019050818103600083015262000add81620009a4565b9050919050565b6000602082019050818103600083015262000aff81620009cb565b9050919050565b6000602082019050818103600083015262000b2181620009f2565b9050919050565b600062000b3462000b47565b905062000b42828262000ce7565b919050565b6000604051905090565b600067ffffffffffffffff82111562000b6f5762000b6e62000d7b565b5b62000b7a8262000daa565b9050602081019050919050565b600081519050919050565b600082825260208201905092915050565b600082825260208201905092915050565b600062000bc18262000c71565b915062000bce8362000c71565b9250827fffffffffffffffffffffffffffffffffffffffffffffffffffffffffffffffff0382111562000c065762000c0562000d1d565b5b828201905092915050565b600062000c1e8262000c51565b9050919050565b60007fffffffff0000000000000000000000000000000000000000000000000000000082169050919050565b600073ffffffffffffffffffffffffffffffffffffffff82169050919050565b6000819050919050565b60005b8381101562000c9b57808201518184015260208101905062000c7e565b8381111562000cab576000848401525b50505050565b6000600282049050600182168062000cca57607f821691505b6020821081141562000ce15762000ce062000d4c565b5b50919050565b62000cf28262000daa565b810181811067ffffffffffffffff8211171562000d145762000d1362000d7b565b5b80604052505050565b7f4e487b7100000000000000000000000000000000000000000000000000000000600052601160045260246000fd5b7f4e487b7100000000000000000000000000000000000000000000000000000000600052602260045260246000fd5b7f4e487b7100000000000000000000000000000000000000000000000000000000600052604160045260246000fd5b6000601f19601f8301169050919050565b7f4552433732313a207472616e7366657220746f206e6f6e20455243373231526560008201527f63656976657220696d706c656d656e7465720000000000000000000000000000602082015250565b7f4552433732313a20746f6b656e20616c7265616479206d696e74656400000000600082015250565b7f496e76616c696420746f6b656e49640000000000000000000000000000000000600082015250565b7f45524337323155524953746f726167653a2055524920736574206f66206e6f6e60008201527f6578697374656e7420746f6b656e000000000000000000000000000000000000602082015250565b7f4552433732313a206d696e7420746f20746865207a65726f2061646472657373600082015250565b62000edf8162000c25565b811462000eeb57600080fd5b50565b62000ef98162000c71565b811462000f0557600080fd5b50565b613ff08062000f186000396000f3fe60806040526004361061012a5760003560e01c806351cff8d9116100ab578063b88d4fde1161006f578063b88d4fde146103f5578063c87b56dd1461041e578063e985e9c51461045b578063f35e622714610498578063f437bc59146104d5578063fb0bc9d7146105005761012a565b806351cff8d9146102fe5780636352211e1461032757806370a082311461036457806395d89b41146103a1578063a22cb465146103cc5761012a565b806323b872dd116100f257806323b872dd146102285780632be3b7c6146102515780632c4e722e1461026d578063317707541461029857806342842e0e146102d55761012a565b806301ffc9a71461012f57806306fdde031461016c578063081812fc14610197578063095ea7b3146101d457806318160ddd146101fd575b600080fd5b34801561013b57600080fd5b5061015660048036038101906101519190612b44565b61052b565b604051610163919061314f565b60405180910390f35b34801561017857600080fd5b5061018161060d565b60405161018e919061316a565b60405180910390f35b3480156101a357600080fd5b506101be60048036038101906101b99190612c0e565b61069f565b6040516101cb91906130e8565b60405180910390f35b3480156101e057600080fd5b506101fb60048036038101906101f69190612adf565b610724565b005b34801561020957600080fd5b5061021261083c565b60405161021f9190613502565b60405180910390f35b34801561023457600080fd5b5061024f600480360381019061024a919061294a565b610842565b005b61026b60048036038101906102669190612a50565b6108a2565b005b34801561027957600080fd5b50610282610917565b60405161028f9190613502565b60405180910390f35b3480156102a457600080fd5b506102bf60048036038101906102ba9190612b96565b61091d565b6040516102cc919061316a565b60405180910390f35b3480156102e157600080fd5b506102fc60048036038101906102f7919061294a565b610b61565b005b34801561030a57600080fd5b50610325600480360381019061032091906128e5565b610b81565b005b34801561033357600080fd5b5061034e60048036038101906103499190612c0e565b610c62565b60405161035b91906130e8565b60405180910390f35b34801561037057600080fd5b5061038b600480360381019061038691906128bc565b610d14565b6040516103989190613502565b60405180910390f35b3480156103ad57600080fd5b506103b6610dcc565b6040516103c3919061316a565b60405180910390f35b3480156103d857600080fd5b506103f360048036038101906103ee9190612a14565b610e5e565b005b34801561040157600080fd5b5061041c60048036038101906104179190612999565b610fdf565b005b34801561042a57600080fd5b5061044560048036038101906104409190612c0e565b611041565b604051610452919061316a565b60405180910390f35b34801561046757600080fd5b50610482600480360381019061047d919061290e565b611193565b60405161048f919061314f565b60405180910390f35b3480156104a457600080fd5b506104bf60048036038101906104ba9190612b96565b611227565b6040516104cc9190613502565b60405180910390f35b3480156104e157600080fd5b506104ea61145d565b6040516104f791906130e8565b60405180910390f35b34801561050c57600080fd5b50610515611483565b604051610522919061316a565b60405180910390f35b60007f80ac58cd000000000000000000000000000000000000000000000000000000007bffffffffffffffffffffffffffffffffffffffffffffffffffffffff1916827bffffffffffffffffffffffffffffffffffffffffffffffffffffffff191614806105f657507f5b5e139f000000000000000000000000000000000000000000000000000000007bffffffffffffffffffffffffffffffffffffffffffffffffffffffff1916827bffffffffffffffffffffffffffffffffffffffffffffffffffffffff1916145b80610606575061060582611537565b5b9050919050565b60606000805461061c90613800565b80601f016020809104026020016040519081016040528092919081815260200182805461064890613800565b80156106955780601f1061066a57610100808354040283529160200191610695565b820191906000526020600020905b81548152906001019060200180831161067857829003601f168201915b5050505050905090565b60006106aa826115a1565b6106e9576040517f08c379a00000000000000000000000000000000000000000000000000000000081526004016106e09061334c565b60405180910390fd5b6004600083815260200190815260200160002060009054906101000a900473ffffffffffffffffffffffffffffffffffffffff169050919050565b600061072f82610c62565b90508073ffffffffffffffffffffffffffffffffffffffff168373ffffffffffffffffffffffffffffffffffffffff1614156107a0576040517f08c379a0000000000000000000000000000000000000000000000000000000008152600401610797906133cc565b60405180910390fd5b8073ffffffffffffffffffffffffffffffffffffffff166107bf61160d565b73ffffffffffffffffffffffffffffffffffffffff1614806107ee57506107ed816107e861160d565b611193565b5b61082d576040517f08c379a00000000000000000000000000000000000000000000000000000000081526004016108249061326c565b60405180910390fd5b6108378383611615565b505050565b60095481565b61085361084d61160d565b826116ce565b610892576040517f08c379a0000000000000000000000000000000000000000000000000000000008152600401610889906133ec565b60405180910390fd5b61089d8383836117ac565b505050565b816008546108b0919061366e565b34146108f1576040517f08c379a00000000000000000000000000000000000000000000000000000000081526004016108e89061344c565b60405180910390fd5b6000600954905061090481868686611a08565b61090f818784611e4c565b505050505050565b60085481565b60608273__Date__________________________________6308a9cf1790916040518263ffffffff1660e01b8152600401610958919061346c565b60206040518083038186803b15801561097057600080fd5b505af4158015610984573d6000803e3d6000fd5b505050506040513d601f19601f820116820180604052508101906109a89190612b1b565b6109e7576040517f08c379a00000000000000000000000000000000000000000000000000000000081526004016109de9061342c565b60405180910390fd5b73__Date__________________________________634a721bca836040518263ffffffff1660e01b8152600401610a1e91906134e7565b60206040518083038186803b158015610a3657600080fd5b505af4158015610a4a573d6000803e3d6000fd5b505050506040513d601f19601f82011682018060405250810190610a6e9190612b1b565b610aad576040517f08c379a0000000000000000000000000000000000000000000000000000000008152600401610aa4906132ec565b60405180910390fd5b6000600a60008573__Date__________________________________63bbf98ae19091876040518363ffffffff1660e01b8152600401610aee929190613487565b60206040518083038186803b158015610b0657600080fd5b505af4158015610b1a573d6000803e3d6000fd5b505050506040513d601f19601f82011682018060405250810190610b3e9190612c37565b8152602001908152602001600020549050610b5881611041565b91505092915050565b610b7c83838360405180602001604052806000815250610fdf565b505050565b600760009054906101000a900473ffffffffffffffffffffffffffffffffffffffff1673ffffffffffffffffffffffffffffffffffffffff16610bc261160d565b73ffffffffffffffffffffffffffffffffffffffff1614610c18576040517f08c379a0000000000000000000000000000000000000000000000000000000008152600401610c0f9061336c565b60405180910390fd5b8073ffffffffffffffffffffffffffffffffffffffff166108fc479081150290604051600060405180830381858888f19350505050158015610c5e573d6000803e3d6000fd5b5050565b6000806002600084815260200190815260200160002060009054906101000a900473ffffffffffffffffffffffffffffffffffffffff169050600073ffffffffffffffffffffffffffffffffffffffff168173ffffffffffffffffffffffffffffffffffffffff161415610d0b576040517f08c379a0000000000000000000000000000000000000000000000000000000008152600401610d02906132ac565b60405180910390fd5b80915050919050565b60008073ffffffffffffffffffffffffffffffffffffffff168273ffffffffffffffffffffffffffffffffffffffff161415610d85576040517f08c379a0000000000000000000000000000000000000000000000000000000008152600401610d7c9061328c565b60405180910390fd5b600360008373ffffffffffffffffffffffffffffffffffffffff1673ffffffffffffffffffffffffffffffffffffffff168152602001908152602001600020549050919050565b606060018054610ddb90613800565b80601f0160208091040260200160405190810160405280929190818152602001828054610e0790613800565b8015610e545780601f10610e2957610100808354040283529160200191610e54565b820191906000526020600020905b815481529060010190602001808311610e3757829003601f168201915b5050505050905090565b610e6661160d565b73ffffffffffffffffffffffffffffffffffffffff168273ffffffffffffffffffffffffffffffffffffffff161415610ed4576040517f08c379a0000000000000000000000000000000000000000000000000000000008152600401610ecb906131ec565b60405180910390fd5b8060056000610ee161160d565b73ffffffffffffffffffffffffffffffffffffffff1673ffffffffffffffffffffffffffffffffffffffff16815260200190815260200160002060008473ffffffffffffffffffffffffffffffffffffffff1673ffffffffffffffffffffffffffffffffffffffff16815260200190815260200160002060006101000a81548160ff0219169083151502179055508173ffffffffffffffffffffffffffffffffffffffff16610f8e61160d565b73ffffffffffffffffffffffffffffffffffffffff167f17307eab39ab6107e8899845ad3d59bd9653f200f220920489ca2b5937696c3183604051610fd3919061314f565b60405180910390a35050565b610ff0610fea61160d565b836116ce565b61102f576040517f08c379a0000000000000000000000000000000000000000000000000000000008152600401611026906133ec565b60405180910390fd5b61103b84848484611ec3565b50505050565b606061104c826115a1565b61108b576040517f08c379a00000000000000000000000000000000000000000000000000000000081526004016110829061332c565b60405180910390fd5b60006006600084815260200190815260200160002080546110ab90613800565b80601f01602080910402602001604051908101604052809291908181526020018280546110d790613800565b80156111245780601f106110f957610100808354040283529160200191611124565b820191906000526020600020905b81548152906001019060200180831161110757829003601f168201915b505050505090506000611135611f1f565b905060008151141561114b57819250505061118e565b6000825111156111805780826040516020016111689291906130c4565b6040516020818303038152906040529250505061118e565b61118984611f36565b925050505b919050565b6000600560008473ffffffffffffffffffffffffffffffffffffffff1673ffffffffffffffffffffffffffffffffffffffff16815260200190815260200160002060008373ffffffffffffffffffffffffffffffffffffffff1673ffffffffffffffffffffffffffffffffffffffff16815260200190815260200160002060009054906101000a900460ff16905092915050565b60008273__Date__________________________________6308a9cf1790916040518263ffffffff1660e01b8152600401611262919061346c565b60206040518083038186803b15801561127a57600080fd5b505af415801561128e573d6000803e3d6000fd5b505050506040513d601f19601f820116820180604052508101906112b29190612b1b565b6112f1576040517f08c379a00000000000000000000000000000000000000000000000000000000081526004016112e89061342c565b60405180910390fd5b73__Date__________________________________634a721bca836040518263ffffffff1660e01b815260040161132891906134e7565b60206040518083038186803b15801561134057600080fd5b505af4158015611354573d6000803e3d6000fd5b505050506040513d601f19601f820116820180604052508101906113789190612b1b565b6113b7576040517f08c379a00000000000000000000000000000000000000000000000000000000081526004016113ae906132ec565b60405180910390fd5b600a60008473__Date__________________________________63bbf98ae19091866040518363ffffffff1660e01b81526004016113f6929190613487565b60206040518083038186803b15801561140e57600080fd5b505af4158015611422573d6000803e3d6000fd5b505050506040513d601f19601f820116820180604052508101906114469190612c37565b815260200190815260200160002054905092915050565b600760009054906101000a900473ffffffffffffffffffffffffffffffffffffffff1681565b606060008073__Date__________________________________6358f7563f426040518263ffffffff1660e01b81526004016114bf91906134e7565b60806040518083038186803b1580156114d757600080fd5b505af41580156114eb573d6000803e3d6000fd5b505050506040513d601f19601f8201168201806040525081019061150f9190612bd2565b9150915061151d828261091d565b9250505090565b600080823b905060008111915050919050565b60007f01ffc9a7000000000000000000000000000000000000000000000000000000007bffffffffffffffffffffffffffffffffffffffffffffffffffffffff1916827bffffffffffffffffffffffffffffffffffffffffffffffffffffffff1916149050919050565b60008073ffffffffffffffffffffffffffffffffffffffff166002600084815260200190815260200160002060009054906101000a900473ffffffffffffffffffffffffffffffffffffffff1673ffffffffffffffffffffffffffffffffffffffff1614159050919050565b600033905090565b816004600083815260200190815260200160002060006101000a81548173ffffffffffffffffffffffffffffffffffffffff021916908373ffffffffffffffffffffffffffffffffffffffff160217905550808273ffffffffffffffffffffffffffffffffffffffff1661168883610c62565b73ffffffffffffffffffffffffffffffffffffffff167f8c5be1e5ebec7d5bd14f71427d1e84f3dd0314c0f7b2291e5b200ac8c7c3b92560405160405180910390a45050565b60006116d9826115a1565b611718576040517f08c379a000000000000000000000000000000000000000000000000000000000815260040161170f9061322c565b60405180910390fd5b600061172383610c62565b90508073ffffffffffffffffffffffffffffffffffffffff168473ffffffffffffffffffffffffffffffffffffffff16148061179257508373ffffffffffffffffffffffffffffffffffffffff1661177a8461069f565b73ffffffffffffffffffffffffffffffffffffffff16145b806117a357506117a28185611193565b5b91505092915050565b8273ffffffffffffffffffffffffffffffffffffffff166117cc82610c62565b73ffffffffffffffffffffffffffffffffffffffff1614611822576040517f08c379a00000000000000000000000000000000000000000000000000000000081526004016118199061338c565b60405180910390fd5b600073ffffffffffffffffffffffffffffffffffffffff168273ffffffffffffffffffffffffffffffffffffffff161415611892576040517f08c379a0000000000000000000000000000000000000000000000000000000008152600401611889906131cc565b60405180910390fd5b61189d838383611fdd565b6118a8600082611615565b6001600360008573ffffffffffffffffffffffffffffffffffffffff1673ffffffffffffffffffffffffffffffffffffffff16815260200190815260200160002060008282546118f891906136c8565b925050819055506001600360008473ffffffffffffffffffffffffffffffffffffffff1673ffffffffffffffffffffffffffffffffffffffff168152602001908152602001600020600082825461194f91906135e7565b92505081905550816002600083815260200190815260200160002060006101000a81548173ffffffffffffffffffffffffffffffffffffffff021916908373ffffffffffffffffffffffffffffffffffffffff160217905550808273ffffffffffffffffffffffffffffffffffffffff168473ffffffffffffffffffffffffffffffffffffffff167fddf252ad1be2c89b69c2b068fc378daa952ba7f163c4a11628f55a4df523b3ef60405160405180910390a4505050565b8273__Date__________________________________6308a9cf1790916040518263ffffffff1660e01b8152600401611a41919061346c565b60206040518083038186803b158015611a5957600080fd5b505af4158015611a6d573d6000803e3d6000fd5b505050506040513d601f19601f82011682018060405250810190611a919190612b1b565b611ad0576040517f08c379a0000000000000000000000000000000000000000000000000000000008152600401611ac79061342c565b60405180910390fd5b73__Date__________________________________634a721bca836040518263ffffffff1660e01b8152600401611b0791906134e7565b60206040518083038186803b158015611b1f57600080fd5b505af4158015611b33573d6000803e3d6000fd5b505050506040513d601f19601f82011682018060405250810190611b579190612b1b565b611b96576040517f08c379a0000000000000000000000000000000000000000000000000000000008152600401611b8d906132ec565b60405180910390fd5b428373__Date__________________________________63a13c156a90918560006040518463ffffffff1660e01b8152600401611bd5939291906134b0565b60206040518083038186803b158015611bed57600080fd5b505af4158015611c01573d6000803e3d6000fd5b505050506040513d601f19601f82011682018060405250810190611c259190612c37565b1015611c66576040517f08c379a0000000000000000000000000000000000000000000000000000000008152600401611c5d9061324c565b60405180910390fd5b6000604051806060016040528085600001518152602001856020015181526020018560400151815250905060008390505b6000831115611e445760008273__Date__________________________________63bbf98ae19091846040518363ffffffff1660e01b8152600401611cdd929190613487565b60206040518083038186803b158015611cf557600080fd5b505af4158015611d09573d6000803e3d6000fd5b505050506040513d601f19601f82011682018060405250810190611d2d9190612c37565b90506000600a60008381526020019081526020016000205414611d85576040517f08c379a0000000000000000000000000000000000000000000000000000000008152600401611d7c9061340c565b60405180910390fd5b86600a6000838152602001908152602001600020819055508273__Date__________________________________63a8b2ee8a9091846040518363ffffffff1660e01b8152600401611dd8929190613487565b60806040518083038186803b158015611df057600080fd5b505af4158015611e04573d6000803e3d6000fd5b505050506040513d601f19601f82011682018060405250810190611e289190612bd2565b80935081945050508380611e3b906137d6565b94505050611c97565b505050505050565b6009548314611e90576040517f08c379a0000000000000000000000000000000000000000000000000000000008152600401611e879061320c565b60405180910390fd5b611e9a8284611fe2565b611ea48382612000565b600160096000828254611eb791906135e7565b92505081905550505050565b611ece8484846117ac565b611eda84848484612074565b611f19576040517f08c379a0000000000000000000000000000000000000000000000000000000008152600401611f109061318c565b60405180910390fd5b50505050565b606060405180602001604052806000815250905090565b6060611f41826115a1565b611f80576040517f08c379a0000000000000000000000000000000000000000000000000000000008152600401611f77906133ac565b60405180910390fd5b6000611f8a611f1f565b90506000815111611faa5760405180602001604052806000815250611fd5565b80611fb48461220b565b604051602001611fc59291906130c4565b6040516020818303038152906040525b915050919050565b505050565b611ffc8282604051806020016040528060008152506123b8565b5050565b612009826115a1565b612048576040517f08c379a000000000000000000000000000000000000000000000000000000000815260040161203f906132cc565b60405180910390fd5b8060066000848152602001908152602001600020908051906020019061206f9291906125e1565b505050565b60006120958473ffffffffffffffffffffffffffffffffffffffff16611524565b156121fe578373ffffffffffffffffffffffffffffffffffffffff1663150b7a026120be61160d565b8786866040518563ffffffff1660e01b81526004016120e09493929190613103565b602060405180830381600087803b1580156120fa57600080fd5b505af192505050801561212b57506040513d601f19601f820116820180604052508101906121289190612b6d565b60015b6121ae573d806000811461215b576040519150601f19603f3d011682016040523d82523d6000602084013e612160565b606091505b506000815114156121a6576040517f08c379a000000000000000000000000000000000000000000000000000000000815260040161219d9061318c565b60405180910390fd5b805181602001fd5b63150b7a0260e01b7bffffffffffffffffffffffffffffffffffffffffffffffffffffffff1916817bffffffffffffffffffffffffffffffffffffffffffffffffffffffff191614915050612203565b600190505b949350505050565b60606000821415612253576040518060400160405280600181526020017f300000000000000000000000000000000000000000000000000000000000000081525090506123b3565b600082905060005b6000821461228557808061226e90613863565b915050600a8261227e919061363d565b915061225b565b60008167ffffffffffffffff8111156122c7577f4e487b7100000000000000000000000000000000000000000000000000000000600052604160045260246000fd5b6040519080825280601f01601f1916602001820160405280156122f95781602001600182028036833780820191505090505b5090505b600085146123ac5760018261231291906136c8565b9150600a8561232191906138ac565b603061232d91906135e7565b60f81b818381518110612369577f4e487b7100000000000000000000000000000000000000000000000000000000600052603260045260246000fd5b60200101907effffffffffffffffffffffffffffffffffffffffffffffffffffffffffffff1916908160001a905350600a856123a5919061363d565b94506122fd565b8093505050505b919050565b6123c28383612413565b6123cf6000848484612074565b61240e576040517f08c379a00000000000000000000000000000000000000000000000000000000081526004016124059061318c565b60405180910390fd5b505050565b600073ffffffffffffffffffffffffffffffffffffffff168273ffffffffffffffffffffffffffffffffffffffff161415612483576040517f08c379a000000000000000000000000000000000000000000000000000000000815260040161247a9061330c565b60405180910390fd5b61248c816115a1565b156124cc576040517f08c379a00000000000000000000000000000000000000000000000000000000081526004016124c3906131ac565b60405180910390fd5b6124d860008383611fdd565b6001600360008473ffffffffffffffffffffffffffffffffffffffff1673ffffffffffffffffffffffffffffffffffffffff168152602001908152602001600020600082825461252891906135e7565b92505081905550816002600083815260200190815260200160002060006101000a81548173ffffffffffffffffffffffffffffffffffffffff021916908373ffffffffffffffffffffffffffffffffffffffff160217905550808273ffffffffffffffffffffffffffffffffffffffff16600073ffffffffffffffffffffffffffffffffffffffff167fddf252ad1be2c89b69c2b068fc378daa952ba7f163c4a11628f55a4df523b3ef60405160405180910390a45050565b8280546125ed90613800565b90600052602060002090601f01602090048101928261260f5760008555612656565b82601f1061262857805160ff1916838001178555612656565b82800160010185558215612656579182015b8281111561265557825182559160200191906001019061263a565b5b5090506126639190612667565b5090565b5b80821115612680576000816000905550600101612668565b5090565b600061269761269284613542565b61351d565b9050828152602081018484840111156126af57600080fd5b6126ba848285613794565b509392505050565b60006126d56126d084613573565b61351d565b9050828152602081018484840111156126ed57600080fd5b6126f8848285613794565b509392505050565b60008135905061270f81613f47565b92915050565b60008135905061272481613f5e565b92915050565b60008135905061273981613f75565b92915050565b60008151905061274e81613f75565b92915050565b60008135905061276381613f8c565b92915050565b60008151905061277881613f8c565b92915050565b600082601f83011261278f57600080fd5b813561279f848260208601612684565b91505092915050565b600082601f8301126127b957600080fd5b81356127c98482602086016126c2565b91505092915050565b6000606082840312156127e457600080fd5b6127ee606061351d565b905060006127fe84828501612892565b600083015250602061281284828501612892565b602083015250604061282684828501612892565b60408301525092915050565b60006060828403121561284457600080fd5b61284e606061351d565b9050600061285e848285016128a7565b6000830152506020612872848285016128a7565b6020830152506040612886848285016128a7565b60408301525092915050565b6000813590506128a181613fa3565b92915050565b6000815190506128b681613fa3565b92915050565b6000602082840312156128ce57600080fd5b60006128dc84828501612700565b91505092915050565b6000602082840312156128f757600080fd5b600061290584828501612715565b91505092915050565b6000806040838503121561292157600080fd5b600061292f85828601612700565b925050602061294085828601612700565b9150509250929050565b60008060006060848603121561295f57600080fd5b600061296d86828701612700565b935050602061297e86828701612700565b925050604061298f86828701612892565b9150509250925092565b600080600080608085870312156129af57600080fd5b60006129bd87828801612700565b94505060206129ce87828801612700565b93505060406129df87828801612892565b925050606085013567ffffffffffffffff8111156129fc57600080fd5b612a088782880161277e565b91505092959194509250565b60008060408385031215612a2757600080fd5b6000612a3585828601612700565b9250506020612a468582860161272a565b9150509250929050565b600080600080600060e08688031215612a6857600080fd5b6000612a7688828901612700565b9550506020612a87888289016127d2565b9450506080612a9888828901612892565b93505060a0612aa988828901612892565b92505060c086013567ffffffffffffffff811115612ac657600080fd5b612ad2888289016127a8565b9150509295509295909350565b60008060408385031215612af257600080fd5b6000612b0085828601612700565b9250506020612b1185828601612892565b9150509250929050565b600060208284031215612b2d57600080fd5b6000612b3b8482850161273f565b91505092915050565b600060208284031215612b5657600080fd5b6000612b6484828501612754565b91505092915050565b600060208284031215612b7f57600080fd5b6000612b8d84828501612769565b91505092915050565b60008060808385031215612ba957600080fd5b6000612bb7858286016127d2565b9250506060612bc885828601612892565b9150509250929050565b60008060808385031215612be557600080fd5b6000612bf385828601612832565b9250506060612c04858286016128a7565b9150509250929050565b600060208284031215612c2057600080fd5b6000612c2e84828501612892565b91505092915050565b600060208284031215612c4957600080fd5b6000612c57848285016128a7565b91505092915050565b612c69816136fc565b82525050565b612c7881613720565b82525050565b6000612c89826135a4565b612c9381856135ba565b9350612ca38185602086016137a3565b612cac81613999565b840191505092915050565b612cc081613782565b82525050565b6000612cd1826135af565b612cdb81856135cb565b9350612ceb8185602086016137a3565b612cf481613999565b840191505092915050565b6000612d0a826135af565b612d1481856135dc565b9350612d248185602086016137a3565b80840191505092915050565b6000612d3d6032836135cb565b9150612d48826139aa565b604082019050919050565b6000612d60601c836135cb565b9150612d6b826139f9565b602082019050919050565b6000612d836024836135cb565b9150612d8e82613a22565b604082019050919050565b6000612da66019836135cb565b9150612db182613a71565b602082019050919050565b6000612dc9600f836135cb565b9150612dd482613a9a565b602082019050919050565b6000612dec602c836135cb565b9150612df782613ac3565b604082019050919050565b6000612e0f601c836135cb565b9150612e1a82613b12565b602082019050919050565b6000612e326038836135cb565b9150612e3d82613b3b565b604082019050919050565b6000612e55602a836135cb565b9150612e6082613b8a565b604082019050919050565b6000612e786029836135cb565b9150612e8382613bd9565b604082019050919050565b6000612e9b602e836135cb565b9150612ea682613c28565b604082019050919050565b6000612ebe600c836135cb565b9150612ec982613c77565b602082019050919050565b6000612ee16020836135cb565b9150612eec82613ca0565b602082019050919050565b6000612f046031836135cb565b9150612f0f82613cc9565b604082019050919050565b6000612f27602c836135cb565b9150612f3282613d18565b604082019050919050565b6000612f4a6016836135cb565b9150612f5582613d67565b602082019050919050565b6000612f6d6029836135cb565b9150612f7882613d90565b604082019050919050565b6000612f90602f836135cb565b9150612f9b82613ddf565b604082019050919050565b6000612fb36021836135cb565b9150612fbe82613e2e565b604082019050919050565b6000612fd66031836135cb565b9150612fe182613e7d565b604082019050919050565b6000612ff96012836135cb565b915061300482613ecc565b602082019050919050565b600061301c600c836135cb565b915061302782613ef5565b602082019050919050565b600061303f6010836135cb565b915061304a82613f1e565b602082019050919050565b60608201600082015161306b60008501826130b5565b50602082015161307e60208501826130b5565b50604082015161309160408501826130b5565b50505050565b6130a081613778565b82525050565b6130af81613778565b82525050565b6130be81613778565b82525050565b60006130d08285612cff565b91506130dc8284612cff565b91508190509392505050565b60006020820190506130fd6000830184612c60565b92915050565b60006080820190506131186000830187612c60565b6131256020830186612c60565b6131326040830185613097565b81810360608301526131448184612c7e565b905095945050505050565b60006020820190506131646000830184612c6f565b92915050565b600060208201905081810360008301526131848184612cc6565b905092915050565b600060208201905081810360008301526131a581612d30565b9050919050565b600060208201905081810360008301526131c581612d53565b9050919050565b600060208201905081810360008301526131e581612d76565b9050919050565b6000602082019050818103600083015261320581612d99565b9050919050565b6000602082019050818103600083015261322581612dbc565b9050919050565b6000602082019050818103600083015261324581612ddf565b9050919050565b6000602082019050818103600083015261326581612e02565b9050919050565b6000602082019050818103600083015261328581612e25565b9050919050565b600060208201905081810360008301526132a581612e48565b9050919050565b600060208201905081810360008301526132c581612e6b565b9050919050565b600060208201905081810360008301526132e581612e8e565b9050919050565b6000602082019050818103600083015261330581612eb1565b9050919050565b6000602082019050818103600083015261332581612ed4565b9050919050565b6000602082019050818103600083015261334581612ef7565b9050919050565b6000602082019050818103600083015261336581612f1a565b9050919050565b6000602082019050818103600083015261338581612f3d565b9050919050565b600060208201905081810360008301526133a581612f60565b9050919050565b600060208201905081810360008301526133c581612f83565b9050919050565b600060208201905081810360008301526133e581612fa6565b9050919050565b6000602082019050818103600083015261340581612fc9565b9050919050565b6000602082019050818103600083015261342581612fec565b9050919050565b600060208201905081810360008301526134458161300f565b9050919050565b6000602082019050818103600083015261346581613032565b9050919050565b60006060820190506134816000830184613055565b92915050565b600060808201905061349c6000830185613055565b6134a960608301846130a6565b9392505050565b600060a0820190506134c56000830186613055565b6134d260608301856130a6565b6134df6080830184612cb7565b949350505050565b60006020820190506134fc60008301846130a6565b92915050565b60006020820190506135176000830184613097565b92915050565b6000613527613538565b90506135338282613832565b919050565b6000604051905090565b600067ffffffffffffffff82111561355d5761355c61396a565b5b61356682613999565b9050602081019050919050565b600067ffffffffffffffff82111561358e5761358d61396a565b5b61359782613999565b9050602081019050919050565b600081519050919050565b600081519050919050565b600082825260208201905092915050565b600082825260208201905092915050565b600081905092915050565b60006135f282613778565b91506135fd83613778565b9250827fffffffffffffffffffffffffffffffffffffffffffffffffffffffffffffffff03821115613632576136316138dd565b5b828201905092915050565b600061364882613778565b915061365383613778565b9250826136635761366261390c565b5b828204905092915050565b600061367982613778565b915061368483613778565b9250817fffffffffffffffffffffffffffffffffffffffffffffffffffffffffffffffff04831182151516156136bd576136bc6138dd565b5b828202905092915050565b60006136d382613778565b91506136de83613778565b9250828210156136f1576136f06138dd565b5b828203905092915050565b600061370782613758565b9050919050565b600061371982613758565b9050919050565b60008115159050919050565b60007fffffffff0000000000000000000000000000000000000000000000000000000082169050919050565b600073ffffffffffffffffffffffffffffffffffffffff82169050919050565b6000819050919050565b600061378d82613778565b9050919050565b82818337600083830152505050565b60005b838110156137c15780820151818401526020810190506137a6565b838111156137d0576000848401525b50505050565b60006137e182613778565b915060008214156137f5576137f46138dd565b5b600182039050919050565b6000600282049050600182168061381857607f821691505b6020821081141561382c5761382b61393b565b5b50919050565b61383b82613999565b810181811067ffffffffffffffff8211171561385a5761385961396a565b5b80604052505050565b600061386e82613778565b91507fffffffffffffffffffffffffffffffffffffffffffffffffffffffffffffffff8214156138a1576138a06138dd565b5b600182019050919050565b60006138b782613778565b91506138c283613778565b9250826138d2576138d161390c565b5b828206905092915050565b7f4e487b7100000000000000000000000000000000000000000000000000000000600052601160045260246000fd5b7f4e487b7100000000000000000000000000000000000000000000000000000000600052601260045260246000fd5b7f4e487b7100000000000000000000000000000000000000000000000000000000600052602260045260246000fd5b7f4e487b7100000000000000000000000000000000000000000000000000000000600052604160045260246000fd5b6000601f19601f8301169050919050565b7f4552433732313a207472616e7366657220746f206e6f6e20455243373231526560008201527f63656976657220696d706c656d656e7465720000000000000000000000000000602082015250565b7f4552433732313a20746f6b656e20616c7265616479206d696e74656400000000600082015250565b7f4552433732313a207472616e7366657220746f20746865207a65726f2061646460008201527f7265737300000000000000000000000000000000000000000000000000000000602082015250565b7f4552433732313a20617070726f766520746f2063616c6c657200000000000000600082015250565b7f496e76616c696420746f6b656e49640000000000000000000000000000000000600082015250565b7f4552433732313a206f70657261746f7220717565727920666f72206e6f6e657860008201527f697374656e7420746f6b656e0000000000000000000000000000000000000000602082015250565b7f43616e6e6f7420626f6f6b2074696d6520696e20746865207061737400000000600082015250565b7f4552433732313a20617070726f76652063616c6c6572206973206e6f74206f7760008201527f6e6572206e6f7220617070726f76656420666f7220616c6c0000000000000000602082015250565b7f4552433732313a2062616c616e636520717565727920666f7220746865207a6560008201527f726f206164647265737300000000000000000000000000000000000000000000602082015250565b7f4552433732313a206f776e657220717565727920666f72206e6f6e657869737460008201527f656e7420746f6b656e0000000000000000000000000000000000000000000000602082015250565b7f45524337323155524953746f726167653a2055524920736574206f66206e6f6e60008201527f6578697374656e7420746f6b656e000000000000000000000000000000000000602082015250565b7f496e76616c696420686f75720000000000000000000000000000000000000000600082015250565b7f4552433732313a206d696e7420746f20746865207a65726f2061646472657373600082015250565b7f45524337323155524953746f726167653a2055524920717565727920666f722060008201527f6e6f6e6578697374656e7420746f6b656e000000000000000000000000000000602082015250565b7f4552433732313a20617070726f76656420717565727920666f72206e6f6e657860008201527f697374656e7420746f6b656e0000000000000000000000000000000000000000602082015250565b7f4f6e6c7920686f73742063616e20776974686472617700000000000000000000600082015250565b7f4552433732313a207472616e73666572206f6620746f6b656e2074686174206960008201527f73206e6f74206f776e0000000000000000000000000000000000000000000000602082015250565b7f4552433732314d657461646174613a2055524920717565727920666f72206e6f60008201527f6e6578697374656e7420746f6b656e0000000000000000000000000000000000602082015250565b7f4552433732313a20617070726f76616c20746f2063757272656e74206f776e6560008201527f7200000000000000000000000000000000000000000000000000000000000000602082015250565b7f4552433732313a207472616e736665722063616c6c6572206973206e6f74206f60008201527f776e6572206e6f7220617070726f766564000000000000000000000000000000602082015250565b7f556e617661696c61626c6520686f7572732e0000000000000000000000000000600082015250565b7f496e76616c696420646174650000000000000000000000000000000000000000600082015250565b7f496e636f727265637420616d6f756e7400000000000000000000000000000000600082015250565b613f50816136fc565b8114613f5b57600080fd5b50565b613f678161370e565b8114613f7257600080fd5b50565b613f7e81613720565b8114613f8957600080fd5b50565b613f958161372c565b8114613fa057600080fd5b50565b613fac81613778565b8114613fb757600080fd5b5056fea26469706673582212208d074a93dab5ac0aa6a05609b46a965d26cba26f3d82719261b99478d87f695464736f6c63430008040033",
  "immutableReferences": {},
  "source": "// contracts/Nala.sol\n// SPDX-License-Identifier: MIT\npragma solidity ^0.8.0;\n\nimport \"@openzeppelin/contracts/token/ERC721/ERC721.sol\";\nimport \"@openzeppelin/contracts/token/ERC721/extensions/ERC721Enumerable.sol\";\nimport \"@openzeppelin/contracts/token/ERC721/extensions/ERC721URIStorage.sol\";\n\nimport \"./utils/Date.sol\";\n\ncontract Nala is ERC721URIStorage {\n    using Date for date;\n    address public host;\n\n    uint public rate;\n\n    uint public totalSupply;\n\n    // Mapping from int(datetime YYYYMMDDHH) to token id\n    mapping(uint256 => uint256) private _calendar;\n\n    // inherited URI functionality \n\n    // mapping(uint256 => string) private _tokenURIs\n    // function tokenURI(uint256 tokenId) public view virtual override returns (string memory)\n\n    function scheduledURI(date memory d, uint hour) public view returns (string memory) {\n        require(d.isValidDate(), 'Invalid date');\n        require(Date.isValidHour(hour), 'Invalid hour');\n        uint256 tokenId = _calendar[d.toInt(hour)];\n        // special case for tokenId == 0?\n        return tokenURI(tokenId);\n    }\n\n    function currentURI() public view returns (string memory) {\n        (date memory d, uint hour) = Date.timestampToDateHour(block.timestamp);\n        return scheduledURI(d, hour);\n    }\n\n    constructor(string memory name, string memory symbol, uint _rate, string memory _hostURI) ERC721(name, symbol) {\n        rate = _rate;\n        host = _msgSender();\n        mint(0, host, _hostURI);\n    }\n\n    function mint(uint256 tokenId, address recepient, string memory _tokenURI) internal {\n       require(tokenId == totalSupply, \"Invalid tokenId\");\n       _safeMint(recepient, tokenId);\n       _setTokenURI(tokenId, _tokenURI);\n       totalSupply += 1;\n    }\n\n    // unused internally - frontend only? \n    function checkHourAvailability(date memory d, uint hour) public view returns (uint256) {\n        require(d.isValidDate(), 'Invalid date');\n        require(Date.isValidHour(hour), 'Invalid hour');\n        return _calendar[d.toInt(hour)];\n    }\n\n    // debt: timezone as property of contract (declared in constructor)? \n    // || as input to booking?\n    function bookHours(uint256 tokenId, date memory openDate, uint openHour, uint displayHours) internal {\n        require(openDate.isValidDate(), 'Invalid date');\n        require(Date.isValidHour(openHour), 'Invalid hour');\n        require(openDate.timestampFromDateTime(openHour, 0) >= block.timestamp, 'Cannot book time in the past');\n        date memory _date = date({year: openDate.year, month: openDate.month, day: openDate.day});\n        uint _hour = openHour;\n        // there's room for more efficiency with date.toInt conversions unnecessary \n        // each iteration\n        while (displayHours > 0) {\n           uint _requestedInt = _date.toInt(_hour);\n           if (_calendar[_requestedInt] != 0) {\n               revert('Unavailable hours.');\n           }\n           _calendar[_requestedInt] = tokenId;\n           (_date, _hour) = _date.incrementHour(_hour);\n           displayHours--;\n        }\n    }\n\n    function book(address guest, date memory openDate, uint openHour, uint displayHours, string memory _tokenURI) public payable {\n       require(msg.value == rate * displayHours, \"Incorrect amount\");\n       uint256 tokenId = totalSupply;\n       bookHours(tokenId, openDate, openHour, displayHours);\n       mint(tokenId, guest, _tokenURI);\n    }\n\n    function withdraw(address payable recepient) public {\n        require(_msgSender() == host, \"Only host can withdraw\");\n        recepient.transfer(address(this).balance);\n    }\n}\n",
  "sourcePath": "/Users/nicholassclafani/code/crypto/github/nms-7/nala/contracts/Nala.sol",
  "compiler": {
    "name": "solc",
    "version": "0.8.4+commit.c7e474f2.Emscripten.clang"
  },
  "schemaVersion": "3.4.2",
  "updatedAt": "2021-09-03T15:48:19.981Z",
  "devdoc": {
    "kind": "dev",
    "methods": {
      "approve(address,uint256)": {
        "details": "See {IERC721-approve}."
      },
      "balanceOf(address)": {
        "details": "See {IERC721-balanceOf}."
      },
      "getApproved(uint256)": {
        "details": "See {IERC721-getApproved}."
      },
      "isApprovedForAll(address,address)": {
        "details": "See {IERC721-isApprovedForAll}."
      },
      "name()": {
        "details": "See {IERC721Metadata-name}."
      },
      "ownerOf(uint256)": {
        "details": "See {IERC721-ownerOf}."
      },
      "safeTransferFrom(address,address,uint256)": {
        "details": "See {IERC721-safeTransferFrom}."
      },
      "safeTransferFrom(address,address,uint256,bytes)": {
        "details": "See {IERC721-safeTransferFrom}."
      },
      "setApprovalForAll(address,bool)": {
        "details": "See {IERC721-setApprovalForAll}."
      },
      "supportsInterface(bytes4)": {
        "details": "See {IERC165-supportsInterface}."
      },
      "symbol()": {
        "details": "See {IERC721Metadata-symbol}."
      },
      "tokenURI(uint256)": {
        "details": "See {IERC721Metadata-tokenURI}."
      },
      "transferFrom(address,address,uint256)": {
        "details": "See {IERC721-transferFrom}."
      }
    },
    "version": 1
  },
  "userdoc": {
    "kind": "user",
    "methods": {},
    "version": 1
  }
}